:020000040800F2
:10000000000001202D350008652A00086B2A000831
:10001000712A0008772A00087D2A000800000000E5
:10002000000000000000000000000000832A00081B
:100030008F2A0008000000009B2A0008A72A000859
:100040007D3500087D3500087D3500087D350008C8
:100050007D3500087D3500087D3500087D350008B8
:100060007D3500087D3500087D350008B52A00087B
:10007000C92A0008DD2A0008F12A0008052B00081B
:10008000192B00087D3500087D3500087D350008F6
:100090007D3500087D3500087D3500087D35000878
:1000A0007D3500087D3500087D3500087D35000868
:1000B0007D3500087D3500087D3500087D35000858
:1000C0007D3500087D3500087D3500087D35000848
:1000D0002D2B0008412B0008552B00087D3500080A
:1000E0007D3500087D3500087D3500087D35000828
:1000F0007D3500087D3500087D3500087D35000818
:100100007D3500087D350008692B00087D35000825
:100110007D3500087D3500087D3500087D350008F7
:100120007D3500087D3500087D3500087D350008E7
:080130007D3500087D35000853
:1001400010B5054C237833B9044B13B10448AFF311
:1001500000800123237010BD680000200000000013
:100160000CC6000808B5034B1BB103490348AFF3A5
:10017000008008BD000000006C0000200CC60008D4
:1001800001F0FF01102A2BDB10F0070F08D010F848
:10019000013B013A8B422DD010F0070F42B3F6D14C
:1001A000F0B441EA012141EA014122F007047FF065
:1001B00000070023F0E80256083C85EA010586EABC
:1001C000010685FA47F5A3FA87F586FA47F6A5FAF8
:1001D00087F68EB9EED1F0BC01F0FF0102F0070204
:1001E00032B110F8013B013A83EA010313B1F8D1AF
:1001F0000020704701387047002D06BF3546033890
:10020000073815F0010F07D1013015F4807F02BFC8
:10021000013015F4C03F0130F0BC0138704700BF19
:1002200053B94AB9002908BF00281CBF4FF0FF315D
:100230004FF0FF3000F070B9ADF1080C6DE904CE5D
:1002400000F006F8DDF804E0DDE9022304B07047B1
:100250002DE9F047089E0D4604460F46002B4AD173
:100260008A42944665D9B2FA82F343B102FA03FC9A
:10027000C3F120029F4020FA02F217439C404FEA4C
:100280001C4E1FFA8CF5B7FBFEF1220C0EFB11770A
:1002900042EA074201FB05F090420AD91CEB020238
:1002A00001F1FF3780F01B81904240F21881023942
:1002B0006244121AA4B2B2FBFEF00EFB102244EA12
:1002C000024400FB05F5A5420AD91CEB040400F129
:1002D000FF3280F00681A54240F203816444023877
:1002E00040EA0140641B00211EB1DC400023C6E946
:1002F0000043BDE8F0878B4208D9002E00F0EC8067
:100300000021C6E900050846BDE8F087B3FA83F18D
:10031000002949D1AB4202D3824200F2F780841A0D
:1003200065EB030201201746002EE2D0C6E9004724
:10033000DFE702B9FFDEB2FA82F3002B40F08F80D4
:100340008A1A4FEA1C471FFA8CFE0121B2FBF7F50F
:1003500007FB1520220C42EA00420EFB05F09042FA
:1003600008D91CEB020205F1FF3802D2904200F2DC
:10037000CA804546121AA4B2B2FBF7F007FB10225E
:1003800044EA02440EFB00FEA64508D91CEB040417
:1003900000F1FF3202D2A64500F2BA801046A4EB6B
:1003A0000E0440EA05409FE7C1F120078B4022FA86
:1003B00007FC4CEA030C05FA01F420FA07F3FD40B0
:1003C000234300FA01F94FEA1C401FFA8CFEB5FBEB
:1003D000F0F81C0C00FB185544EA054408FB0EF528
:1003E000A54202FA01F20BD91CEB040408F1FF3A12
:1003F00080F08780A54240F28480A8F1020864441E
:10040000641B9DB2B4FBF0F300FB134445EA0444C3
:1004100003FB0EFEA64508D91CEB040403F1FF30D4
:100420006BD2A64569D9023B644443EA0840A0FB6D
:100430000283A4EB0E049C42C6461D4655D352D0FF
:1004400056B1B9EB0E0364EB050404FA07F7CB4091
:10045000CC401F43C6E900740021BDE8F087C3F11A
:10046000200102FA03FC20FA01F225FA01F19D4075
:100470002A434FEA1C471FFA8CFEB1FBF7F007FB3B
:100480001015110C41EA054100FB0EF58D4204FAEE
:1004900003F408D91CEB010100F1FF382FD28D4283
:1004A0002DD902386144491B92B2B1FBF7F507FB25
:1004B000151142EA014205FB0EF1914208D91CEBED
:1004C000020205F1FF3816D2914214D9023D62446E
:1004D000521A45EA004139E73146304609E73946C4
:1004E000E7E61046FCE6C145AAD2B8EB020E63EB84
:1004F0000C050138A4E74546EAE7034695E7404680
:10050000D1E7D0467CE7023D624433E708460BE77B
:100510006444023843E700BF704700BF80B487B02F
:1005200000AF78607B685A78144B1A7001237B61A6
:1005300003233B617B6802331B78BB600023FB60B5
:1005400011E03B697A68134419780C4A7B691344BB
:100550000A461A707B6901337B613B6901333B6159
:10056000FB680133FB60FA68BB689A42E9DB00BFB5
:1005700000BF1C37BD4680BC704700BFB4010020DF
:1005800080B586B000AF78600B46FB700023FB811E
:10059000FB781946786800F07DF90346FB81224B11
:1005A0007E221A7001237B6100233B610EE03B69D0
:1005B0007A68134419781C4A7B6913440A461A70F6
:1005C0007B6901337B613B6901333B61FB783A69AD
:1005D0009A42ECDBFB891B0A9BB2D9B2124A7B69B7
:1005E00013440A461A707B6901337B61FB89D9B2D7
:1005F0000D4A7B6913440A461A707B6901337B619B
:10060000094A7B6913447E221A709622002107480A
:100610000BF07AFB9622002105480BF075FB00BF1A
:100620001837BD4680BD00BFA00300208400002015
:100630001C01002080B586B000AF78600B46FB70CF
:100640007868FFF76BFF3A4B72221A70384B9C2286
:100650005A70374B64229A70354BA622DA70344BAD
:1006600064221A71324B40225A71314BE0229A7146
:100670002F4B7222DA712E4B9C221A722C4B642261
:100680005A722B4BA6229A72294B6422DA72284B9B
:1006900040221A73264B61225A73254B03229A7308
:1006A000234BF022DA7310237B6100233B610EE0C1
:1006B000204A3B69134419781D4A7B6913440A4652
:1006C0001A707B6901337B613B6901333B61FB78C5
:1006D0003A699A42ECDB7969174800F04FF81748FD
:1006E00000F04CF80023FB600AE0114AFB68134459
:1006F0001B781946124800F041F8FB680133FB6093
:10070000FA687B699A42F0DB0C4800F037F87A69A6
:100710000C49074800F0FDF8B860BB68DBB2194629
:100720000848FFF72DFF00BF1837BD4680BD00BF4A
:1007300084000020B401002024C6000844C600083C
:1007400048C600081C01002080B485B000AF786066
:10075000094B1B6800225A6202E0FB680133FB6010
:10076000054B1B685B6A7A689A42F6D800BF00BFE7
:100770001437BD4680BC7047100500200FB480B50B
:1007800082B000AF07F114033B603B683A69642113
:100790000A480BF0ABFA094800F014F878607B685F
:1007A0009AB24FF47A730549054806F072F800BF13
:1007B0000837BD46BDE8804004B0704718020020ED
:1007C000F405002080B485B000AF78600023FB60A2
:1007D00002E0FB680133FB607B685A1C7A601B787F
:1007E000002BF6D1FB6818461437BD4680BC704715
:1007F00080B485B000AF78604FF0B0439A6C4FF092
:10080000B0417B6813438B644FF0B0439A6C7B68B4
:100810001340FB60FB6800BF1437BD4680BC7047C7
:1008200080B500AF0420FFF7E3FF0120FFF7E0FFF2
:10083000002200210B2002F0E6FF0B2002F0FDFF5A
:10084000002200210C2002F0DEFF0C2002F0F5FF58
:10085000002200210D2002F0D6FF0D2002F0EDFF56
:10086000002200210E2002F0CEFF0E2002F0E5FF54
:10087000002200210F2002F0C6FF0F2002F0DDFF52
:1008800000220021102002F0BEFF102002F0D5FF50
:1008900000BF80BD80B487B000AF786039604FF68C
:1008A000FF73FB8241F221037B8100233B6126E041
:1008B0007A683B6913441B781B021AB2B7F91630E9
:1008C00053401BB2FB820023FB6012E0B7F91630E5
:1008D000002B08DAFB8A5B001AB2B7F90A305340E2
:1008E0001BB2FB8202E0FB8A5B00FB82FB680133E8
:1008F000FB60FB68072BE9DD3B6901333B613A692B
:100900003B689A42D4D3FB8A18461C37BD4680BC4C
:10091000704780B48FB000AFF860B9607A60002390
:100920007B6300233B63002387F82F300723BB62E0
:1009300000237B6200233B620023FB6178E00723F6
:10094000BB616FE0FB69FA6813441B781A46BB6908
:1009500042FA03F303F001033B613A69BB6A02FA0E
:1009600003F35AB297F92F3013435BB287F82F3055
:10097000BB6A013BBB623B69002B2FD03B6B013351
:100980003B633B6B052B2BD1BB6A002B10DA7B6BD7
:100990005A1C7A631A46BB68134497F82F201A70C2
:1009A0007B6A01337B62002387F82F300723BB6209
:1009B0000122BB6A02FA03F35BB2DB435AB297F936
:1009C0002F3013405BB287F82F30BB6A013BBB620C
:1009D0003B6A01333B6200233B6301E000233B633E
:1009E000BB6A002B10DA7B6B5A1C7A631A46BB6811
:1009F000134497F82F201A707B6A01337B6200231F
:100A000087F82F300723BB623B6A082B07DDBB6AE0
:100A1000002B04DB7B6A01337B6200233B62BB69F2
:100A2000013BBB61BB69002B8CDAFB690133FB61C5
:100A3000FA697B689A4282DBBB6A062B0BDC7B6B14
:100A40005A1C7A631A46BB68134497F82F201A7011
:100A50007B6A01337B6200237B610AE07B69FA6871
:100A60001A447B69B9680B4412781A707B690133A8
:100A70007B617A697B689A42F0DB7B687B637B6B86
:100A800018463C37BD4680BC704780B48DB000AF7F
:100A9000F860B9607A600023FB620023BB62002328
:100AA00087F8273007233B620023FB6152E00723CE
:100AB000BB6149E0FB69FA6813441B781A46BB69BD
:100AC00042FA03F303F001033B613B69002B11D0B1
:100AD000BB6A0133BB623A693B6A02FA03F35AB25A
:100AE00097F9273013435BB287F827303B6A013B05
:100AF0003B6215E0BB6A052B02D10023BB6220E0FC
:100B00000023BB623A693B6A02FA03F35AB297F9CF
:100B1000273013435BB287F827303B6A013B3B62C7
:100B20003B6A002B0DDAFB6A5A1CFA621A46BB6854
:100B3000134497F827201A70002387F827300723DB
:100B40003B62BB69013BBB61BB69002BB2DAFB694D
:100B50000133FB61FA697B689A42A8DB3B6A062B8A
:100B600008DCFB6A5A1CFA621A46BB68134497F801
:100B700027201A7000237B610AE07B69FA681A4417
:100B80007B69B9680B4412781A707B6901337B6109
:100B90007A697B689A42F0DB7B68FB62FB6A1846E5
:100BA0003437BD4680BC704780B485B000AF7860F4
:100BB0000023FB737B6801331B78DA2B49D0DA2BD7
:100BC0004DDC0D2B28DC0A2B18DA48E0AA3B082B59
:100BD00045D801A252F823F0590C00085F0C000818
:100BE0002F0C00084D0C00085F0C00085F0C00087B
:100BF0005F0C0008230C0008290C00080A3B032B9B
:100C00002DD801A252F823F0350C00083B0C000847
:100C1000410C0008470C0008B22B20DCAA2BD5DAC7
:100C20001DE00123FB731CE00123FB7319E001238A
:100C3000FB7316E00123FB7313E00123FB7310E049
:100C40000123FB730DE00123FB730AE00123FB7317
:100C500007E00123FB7304E00123FB7301E00023A1
:100C6000FB73FB7B18461437BD4680BC704700BF42
:100C700080B485B000AF78604FF0B043DA6C4FF0CD
:100C8000B0417B681343CB644FF0B043DA6C7B68B0
:100C90001340FB60FB6800BF1437BD4680BC704743
:100CA00080B586B000AF3B1D00221A605A609A6082
:100CB000DA601A610120FFF7DBFF0220FFF7D8FF9F
:100CC0000420FFF7D5FF00224FF40A411F4803F02C
:100CD000B1FA002238211E4803F0ACFA4FF40A435F
:100CE0007B600123BB600023FB6002233B613B1D53
:100CF0001946164803F03EF938237B600123BB6098
:100D00000023FB6003233B613B1D1946104803F0A1
:100D100031F903237B604FF40413BB600123FB60B4
:100D20003B1D19464FF0904003F024F940237B60AF
:100D30004FF40413BB600123FB603B1D19460448BC
:100D400003F018F900BF1837BD4680BD0004004805
:100D50000008004880B582B000AF2B211E48FFF785
:100D60000DFD1E4B1B789AB24FF47A731C491D4837
:100D700005F08FFD0346002B0BD0184B1B789AB261
:100D80004FF47A731649184805F083FD0346002B8B
:100D90001DD1164B01221A60114B9A78144B1A7010
:100DA00000237B600AE00E4A7B6813441B781946D7
:100DB0001048FFF7E3FC7B6801337B607B682A2BDC
:100DC000F1D90D48FFF7DAFC0C48FFF7D7FC00BF5C
:100DD0000837BD4680BD00BF50C600080200002095
:100DE000700300208806002060050020F004002029
:100DF0001603002080C6000888C600088CC60008BC
:100E000080B487B000AF7860396000237B61002335
:100E10003B610023FB600023BB6013E0BB687A6882
:100E200013441B787E2B0AD17B69002B04D101234C
:100E30007B61BB683B6102E0BB68FB6006E0BB68AE
:100E40000133BB60BA683B689A42E7DBFA683B69EA
:100E50009A4204DDFA683B69D31A013301E04FF08E
:100E6000FF3318461C37BD4680BC704780B582B042
:100E700000AF0346FB71114B00221A700F4AFB7939
:100E800013720E4B08225A800C4B04221A710B4B22
:100E900018225A71094B00229A71084B0022DA710C
:100EA000064BF2225A72054B01229A72034809F04E
:100EB00005FF00BF0837BD4680BD00BF7C02002093
:100EC00080B582B000AF786039600B4B00221A7099
:100ED000094B0D225A73084A7B685360064A3B68E7
:100EE0009360054B0B221A73034809F015FE00BFEF
:100EF0000837BD4680BD00BF9002002080B584B099
:100F000000AF78600B46FB700021002009F074FFF1
:100F1000FB781946786809F055F90F4A07F108037C
:100F200092E8030083E8030007F10803184609F07C
:100F30008EF940F2FF1009F0D9F9012301220021B6
:100F4000072009F031FC02220E21012009F016FDD4
:100F500000BF1037BD4680BDB8C6000880B588B058
:100F600000AF78607B689F4A934208D07B689E4AB6
:100F7000934204D07B689D4A934240F027829C4B69
:100F80001B68012B40F022820023FB72994B1B78D7
:100F9000FA7A9A4203D0974B1B78532B11D0002337
:100FA000FB610BE0FB690133924AD15C914AFB691A
:100FB00013440A461A70FB690133FB61FB69542B29
:100FC000F0D98D4B1B68012B06D18B4B00221A6088
:100FD0008A4B01221A60E9E1874B00221A6085489A
:100FE000FFF7E2FD0346864A1360854B1B68012B21
:100FF00040F09F81834B1B68012B40F03F81824B67
:101000001B68002B40F03A81804B1B68012B40F09D
:1010100035817A4B00221A60764B1B78532B40F0B7
:10102000A180744B93F853307E2B40F09B8078481E
:10103000FFF7A4FB6F4B9A78764B1A706D4B5A787A
:10104000754B1A70754B01221A60724B1B7819464A
:101050006848FFF7EFFA96217148FFF7D1FE034683
:10106000704A13600023BB610BE06D4ABB691344F7
:1010700019786D4ABB6913440A461A70BB6901337B
:10108000BB61684B1B68BA699A42EEDB614B1B7807
:101090001A46002157480AF037FE96220021604880
:1010A0000AF032FE6148FFF74FFB5E4B1B68DBB274
:1010B0001846FFF7DBFE40F6B8314FF49660FFF7B5
:1010C000FFFE584B1B68DBB219465748FFF716FF67
:1010D0005748FFF753FB57495748FFF74FFB574B0C
:1010E0005B6819465648FFF749FB544B9B68194605
:1010F0005448FFF743FB514B5B7B19465248FFF7BF
:101100003DFB524B1B7819465148FFF737FB4F4BBD
:101110001B7A19464F48FFF731FB4C4B5B88194649
:101120004D48FFF72BFB494B1B7919464B48FFF7FE
:1011300025FB464BDB7919464948FFF71FFB494819
:10114000FFF71CFB3B4809F0ADFB0121012009F032
:10115000F1FF344B1B68DBB200221946324809F01C
:1011600063F822E14048FFF709FB404B1B789AB235
:101170004FF4FA631F491B4805F08BFB0346002B15
:101180000CD03A4B1B789AB24FF4FA6319491648BF
:1011900005F07FFB0346002B40F0078155213448C2
:1011A000FFF7ECFA00237B610AE0124A7B691344E3
:1011B0001B7819462F48FFF7E1FA7B6901337B6101
:1011C0007B69542BF1D92C48FFF7D8FA552200211E
:1011D00008480AF099FD094B00221A600F4B0022C3
:1011E0001A60E2E08806002060050020F405002077
:1011F000D404002018030020F00400209C030020E9
:10120000E8040020D804002004000020E4040020AA
:10121000C0C6000816030020DC040020E004002003
:10122000A0030020D00400203804002020A10700E3
:10123000F0C6000818D0111A1CC700089002002040
:1012400044C7000854C7000870C700087C0200208B
:101250008CC70008A0C70008B8C70008D0C700089E
:10126000E8C70008FCC7000828C8000801000020E3
:101270005CC8000880C6000888C60008554B1B786B
:10128000532B1AD1534B93F853307E2B15D1514B1E
:101290009A78514B1A704F4B5A78504B1A704F4BEB
:1012A0001B78B12B05D14E4B02221A604D4B022206
:1012B0001A604D4B01221A6078E04C48FFF75EFA45
:1012C0004B4B1B789AB24FF4FA634249494805F0F8
:1012D000E0FA0346002B0BD0454B1B789AB24FF433
:1012E000FA633C49444805F0D4FA0346002B5DD12B
:1012F00055214248FFF742FA00233B610AE0354A94
:101300003B6913441B7819463D48FFF737FA3B69A0
:1013100001333B613B69542BF1D93A48FFF72EFA70
:10132000552200212B480AF0EFFC2F4B00221A60B7
:101330003CE03548FFF722FA2D4B1B789AB24FF468
:101340007A7324492B4805F0A4FA0346002B0BD0EE
:10135000274B1B789AB24FF47A731E49264805F042
:1013600098FA0346002B21D155212848FFF706FAA9
:101370000023FB600AE0174AFB6813441B781946F8
:101380001F48FFF7FBF9FB680133FB60FB68542B38
:10139000F1D91C48FFF7F2F9552200210D480AF057
:1013A000B3FC114B00221A6000E000BF104B1B7809
:1013B0009BB21A4607490F4805F0B6FB0C4B1B7849
:1013C0009BB21A4603490C4805F0AEFB00BF20371C
:1013D000BD4680BD1803002016030020DC04002059
:1013E00004000020080000209C030020A4C800087E
:1013F000010000208806002060050020D0C80008F9
:1014000080C6000888C6000810C9000840C9000846
:101410002DE9F04FB7B002AF02F0B2F800F0DAFEFB
:10142000FFF73EFCFFF7FCF901F02EFE01F094FD02
:1014300001F0DEFD0AF0BDF801F058FC9D4804F013
:1014400051FF9D48FFF79AF99C48FFF797F99C4890
:10145000FFF794F99B4A9C499C48FFF78FF99C48F9
:10146000FFF78CF90E2300930123002207219948EE
:10147000FFF784F99848FFF781F901E001F0F6F9E8
:10148000964B1B68002BF9D0954808F049FE0023C5
:10149000002240F20F2140F20F2009F0A7F9914BF2
:1014A0001B781846FFF7E2FC40F6B8314FF496601F
:1014B000FFF706FD8B4B1B7819468B48FFF71EFD87
:1014C0008A48FFF75BF98A48FFF758F98948FFF720
:1014D00055F98948FFF752F97A498848FFF74EF9DC
:1014E000874B5B6819468748FFF748F9844B9B6830
:1014F00019468548FFF742F9814B5B7B19468348C3
:10150000FFF73CF9824B1B7819468248FFF736F902
:101510007F4B1B7A19468048FFF730F97C4B5B887C
:1015200019467E48FFF72AF9794B1B7919467C4802
:10153000FFF724F9764BDB7919467A48FFF71EF955
:101540007948FFF71BF95F4809F0ACF90021012049
:1015500009F0F0FD6FF07F4008F0D0FF734B1B786F
:101560009BB21A467249734805F0DEFA6F4B1B783E
:101570009BB21A466E49704805F0D6FA0AF021F877
:101580006E48FFF7E1F86E4B1B68012B40F0E680D8
:101590006C4B1B7819466648FFF74CF896216A4851
:1015A000FFF72EFC0346694A13600023C7F8CC30CE
:1015B0000FE0654AD7F8CC3013441978644AD7F85D
:1015C000CC3013440A461A70D7F8CC300133C7F830
:1015D000CC305E4B1B68D7F8CC209A42E9DB594BE4
:1015E0001B781A46002152480AF08EFB96220021F1
:1015F00055480AF089FB554B1B68DBB21846FFF7CC
:1016000035FC42F6E0614FF49650FFF759FC4F4B22
:101610001B68DBB219464E48FFF770FC4D48FFF7D8
:10162000ADF829494C48FFF7A9F8354B5B681946D6
:101630003448FFF7A3F8324B9B6819463248FFF74E
:101640009DF82F4B5B7B19463048FFF797F8304BDE
:101650001B7819462F48FFF791F82D4B1B7A194636
:101660002D48FFF78BF82A4B5B8819462B48FFF76C
:1016700085F8274B1B7919462948FFF77FF8244B3B
:10168000DB7919462748FFF779F82748FFF776F8FE
:101690000D4809F007F90121012009F04BFD2B4B02
:1016A0001B68DBB200221946294808F0BDFD00F096
:1016B0006CBD00BF1005002078C90008B4C900083F
:1016C000E8C900086859F21918D0111A04CA0008AC
:1016D00044CA00086CCA0008C0CA0008D40400202C
:1016E0009522000800000020AC020020ECCA00088F
:1016F00034CB000854CB000874CB0008A0CB000802
:101700009002002044C7000854C7000870C70008B2
:101710007C0200208CC70008A0C70008B8C70008DA
:10172000D0C70008E8C70008FCC700080100002077
:1017300018030020880600206005002020A1070073
:101740009C03002016030020A0030020D0040020EA
:1017500038040020F0C600081CC70008BD4B1B68F9
:10176000012B40F012856B46BB60BA4B00221A6019
:10177000002387F88B30B84B1B781946B748FFF722
:101780003FFB034687F88B3097F88B30043B87F894
:101790008A3097F88A201146F9600B46013BC7F85A
:1017A0008430CBB20022984691464FF000024FF0B1
:1017B00000034FEAC90343EA58734FEAC802CBB2A9
:1017C00000229A4693464FF000024FF000034FEA82
:1017D000CB0343EA5A734FEACA020B460733DB08CE
:1017E000DB00ADEB030D02AB0033C7F88030002304
:1017F000C7F8C8300123C7F8C43015E0974AD7F8B6
:10180000C43013441978D7F88020D7F8C83013446F
:101810000A461A70D7F8C8300133C7F8C830D7F86D
:10182000C4300133C7F8C43097F88A30D7F8C420E1
:101830009A42E3DD6922002188480AF065FA97F8A8
:101840008A2007F110031946D7F88000FFF71DF929
:10185000F867FC6F631EBB672246002315461E46D1
:101860004FF000024FF00003F30043EA5573EA0023
:10187000224600233A607B604FF000024FF00003E5
:101880007968CB00D7E90001844643EA5C730146DE
:10189000CA0023460733DB08DB00ADEB030D02ABC8
:1018A00000337B670023C7F8C03010E007F1100257
:1018B000D7F8C030134419787A6FD7F8C030134482
:1018C0000A461A70D7F8C0300133C7F8C030D7F8CD
:1018D000C020FB6F9A42E9DB614B1B68012B40F093
:1018E00040817B6F9B7CDF2B07D17B6FDB7CAB2B3D
:1018F00003D17B6F1B7DD12B0BD07B6F9B7C532B3C
:101900003CD17B6FDB7C022B38D17B6F1B7D532B53
:1019100034D15448FEF732FF534B53221A70524BC6
:10192000AC225A70504B04229A704F4B0222DA704C
:101930004D4BFC221A714C4BEE225A710623C7F80C
:10194000BC300AE0484AD7F8BC30134400221A7071
:10195000D7F8BC300133C7F8BC30444B1B781A466B
:10196000D7F8BC309342EDDBFFF7F4F923461A4673
:101970000021786F0AF0C8F900F005BC7B6F9B7CF2
:10198000FD2B5AD17B6FDB7CBA2B56D17B6F1B7D35
:10199000D02B52D1364B02221A60364B00221A60ED
:1019A000354B00221A60354B00221A603448FEF78E
:1019B000E5FE2D4B53221A702B4BAC225A702A4B4A
:1019C00004229A70284B0222DA70274B00221A71E7
:1019D000254BDD225A710623C7F8B8300AE0224AA7
:1019E000D7F8B830134400221A70D7F8B830013352
:1019F000C7F8B8301D4B1B781A46D7F8B830934259
:101A0000EDDBFFF7A7F923461A460021786F0AF0AD
:101A10007BF96922002111480AF076F9FB681A4621
:101A20000021D7F880000AF06FF907F11003642253
:101A3000002118460AF068F9A5E32B211148FEF7AA
:101A40009DFE2B227E2108480AF05EF90023C7F88C
:101A5000B43029E0EC04002000000020AC0200209B
:101A600008000020C8CB00087003002002000020FE
:101A7000040000209C030020D8040020E004002083
:101A8000ECCB00080CCC00087A6FD7F8B4301344C4
:101A90001978AB4AD7F8B43013440A461A70D7F80D
:101AA000B4300133C7F8B430D7F8B420FB6F9A4292
:101AB000EADB4FF4FA632B22A149A24804F0E9FEC5
:101AC0000346002B0AD04FF4FA632B229C499E4810
:101AD00004F0DFFE0346002B00F055830023C7F817
:101AE000B0300DE0964AD7F8B03013441B78194651
:101AF0009648FEF743FED7F8B0300133C7F8B03050
:101B0000D7F8B0302A2BEDD9914808F0CBFE002150
:101B1000012009F00FFB6FF07F4008F0EFFC234637
:101B20001A460021786F0AF0EFF82B227E218448B4
:101B30000AF0EAF86922002186480AF0E5F8FB6815
:101B40001A460021D7F880000AF0DEF807F11003EA
:101B50006422002118460AF0D7F87F48FEF70EFEEF
:101B600011E37E4B1B68002B40F00D837C4B1B6800
:101B7000012B40F06F817B6F9B7CFD2B5AD17B6FDB
:101B8000DB7CBA2B56D17B6F1B7DD02B52D1754B92
:101B900002221A60744B00221A60714B00221A60F4
:101BA000724B00221A607248FEF7E8FD644B532224
:101BB0001A70634BAC225A70614B04229A70604BCE
:101BC0000222DA705E4B00221A715D4BDD225A71DF
:101BD0000623C7F8AC300AE0594AD7F8AC301344B2
:101BE00000221A70D7F8AC300133C7F8AC30614B23
:101BF0001B781A46D7F8AC309342EDDBFFF7AAF812
:101C000023461A460021786F0AF07EF869220021E7
:101C100050480AF079F8FB681A460021D7F880008E
:101C20000AF072F807F110036422002118460AF046
:101C30006BF8A8E27B6F9B7CDF2B57D17B6FDB7C43
:101C4000AB2B53D17B6F1B7DD12B4FD1454B00224A
:101C50001A60454B00221A60414B01221A60464827
:101C6000FEF78CFD364B53221A70354BAC225A705E
:101C7000334B04229A70324B0222DA70304B01222D
:101C80001A712F4BDD225A710623C7F8A8300AE0DB
:101C90002B4AD7F8A830134400221A70D7F8A8307E
:101CA0000133C7F8A830334B1B781A46D7F8A83051
:101CB0009342EDDBFFF74EF823461A460021786F7A
:101CC0000AF022F86922002122480AF01DF8FB6878
:101CD0001A460021D7F880000AF016F807F1100321
:101CE0006422002118460AF00FF84CE27B6F9B7CBF
:101CF000532B7BD17B6FDB7C022B77D17B6F1B7DE2
:101D0000532B73D1F96F1D48FEF738FDA2B24FF483
:101D1000FA63796F0B4804F0BCFD0346002B0AD030
:101D2000A2B24FF4FA63796F074804F0B2FD03469C
:101D3000002B40F027820023C7F8A4302EE000BF1C
:101D400070030020880600206005002080C600087F
:101D50006859F219AC02002038CC000808000020B5
:101D6000D8040020040000209C030020E004002090
:101D7000ECCB00080200002054CC000874CC000812
:101D80007A6FD7F8A43013441B781946B848FEF789
:101D9000F5FCD7F8A4300133C7F8A430D7F8A42055
:101DA000FB6F9A42ECDBB348FEF7E8FC23461A4689
:101DB0000021786F09F0A8FF69220021AE4809F0E0
:101DC000A3FFFB681A460021D7F8800009F09CFFAA
:101DD00007F1100364220021184609F095FFA74877
:101DE000FEF7CCFCA64B01221A60CBE1A548FEF71A
:101DF000C5FCA54B53221A70A34BAC225A70A24BC0
:101E000004229A70A04B0222DA709F4BFC221A71B6
:101E10009D4BEE225A710623C7F8A0300AE09A4A79
:101E2000D7F8A030134400221A70D7F8A03001333D
:101E3000C7F8A030954B1B781A46D7F8A0309342CC
:101E4000EDDBFEF787FF23461A460021786F09F085
:101E50005BFF98E18E4B1B68002B40F094817B6FF9
:101E60009B7CFD2B5AD17B6FDB7CBA2B56D17B6FD1
:101E70001B7DD02B52D1874B02221A60864B002249
:101E80001A60834B00221A60844B00221A60844837
:101E9000FEF774FC7C4B53221A707B4BAC225A70B9
:101EA000794B04229A70784B0222DA70764B00222A
:101EB0001A71754BDD225A710623C7F89C300AE06F
:101EC000714AD7F89C30134400221A70D7F89C301E
:101ED0000133C7F89C306D4B1B781A46D7F89C30FD
:101EE0009342EDDBFEF736FF23461A460021786F5A
:101EF00009F00AFF692200215F4809F005FFFB682D
:101F00001A460021D7F8800009F0FEFE07F1100301
:101F100064220021184609F0F7FE34E17B6F9B7CB8
:101F2000DF2B57D17B6FDB7CAB2B53D17B6F1B7DC2
:101F3000D12B4FD1574B00221A60574B00221A6009
:101F4000534B01221A605748FEF718FC4E4B5322A0
:101F50001A704D4BAC225A704B4B04229A704A4B6C
:101F60000222DA70484B01221A71474BDD225A7166
:101F70000623C7F898300AE0434AD7F8983013444C
:101F800000221A70D7F898300133C7F898303F4BC9
:101F90001B781A46D7F898309342EDDBFEF7DAFE4D
:101FA00023461A460021786F09F0AEFE692200210F
:101FB000314809F0A9FEFB681A460021D7F88000D5
:101FC00009F0A2FE07F1100364220021184609F06F
:101FD0009BFED8E07B6F9B7C532B3BD17B6FDB7CE4
:101FE000022B37D17B6F1B7D532B33D12548FEF756
:101FF000C5FB254B53221A70234BAC225A70224B3F
:1020000004229A70204B0222DA701F4BFC221A71B4
:102010001D4BEE225A710623C7F894300AE01A4A83
:10202000D7F89430134400221A70D7F89430013353
:10203000C7F89430154B1B781A46D7F89430934262
:10204000EDDBFEF787FE23461A460021786F09F084
:102050005BFE98E02B211448FEF790FB2B227E219B
:10206000094809F051FE0023C7F890302EE000BF68
:1020700080C6000888C60008AC020020A8CC000872
:10208000E4040020C8CB00087003002002000020F8
:10209000D8040020040000209C030020E00400205D
:1020A000ECCB000854CC00080CCC00087A6FD7F8B1
:1020B0009030134419783E4AD7F8903013440A46BA
:1020C0001A70D7F890300133C7F89030D7F89020C5
:1020D000FB6F9A42EADB4FF4FA632B22344935480E
:1020E00004F0D7FB0346002B09D04FF4FA632B22F0
:1020F0002F49314804F0CDFB0346002B43D0002389
:10210000C7F88C300DE02A4AD7F88C3013441B787E
:1021100019462A48FEF732FBD7F88C300133C7F84E
:102120008C30D7F88C302A2BEDD9254808F0BAFB33
:102130000021012008F0FEFF6FF07F4008F0DEF97B
:1021400023461A460021786F09F0DEFD2B227E21FE
:10215000174809F0D9FD692200211A4809F0D4FD79
:10216000FB681A460021D7F8800009F0CDFD07F181
:10217000100364220021184609F0C6FD1248FEF73C
:10218000FDFA00E000BFD7F808D0104B1B789BB2D7
:102190001A460F49074804F0C7FC0C4B1B789BB24A
:1021A0001A460B49044804F0BFFCFFF7E7B900BF2B
:1021B00070030020880600206005002080C600080B
:1021C0006859F219AC02002038CC00080100002048
:1021D0001803002080B59AB000AF07F12003482211
:1021E0000021184609F090FD3B1D00221A605A603C
:1021F0009A60DA601A615A619A61254B1B6823F470
:10220000C063234A43F400731360214B1B6803F43B
:10221000C0633B603B6801233B624FF404137B6265
:102220000023BB620223FB6403233B6510237B6511
:102230000623BB654FF40033FB654FF000537B660C
:102240004FF000733B6607F12003184602F0DCFAFA
:102250000346002B01D000F003FB4F237B600323D8
:10226000BB600023FB6000233B6100237B610023F4
:10227000FB613B1D0221184602F048FE0346002B7D
:1022800001D000F0EDFA00BF6837BD4680BD00BF49
:10229000000400582DE9F04F9FB000AF0346FB81CA
:1022A000FB89012B40F05681874B00221A60874B37
:1022B0001B6819468648FEF761FA00237B670AE02F
:1022C000844A7B6F13441B7819468348FEF756FAFD
:1022D0007B6F01337B677D4B1B687A6F9A42EFDB24
:1022E0007E48FEF74BFA7E48FEF748FA42233B74DD
:1022F000AC237B740423BB740223FB744D233B7516
:102300004D237B7506233B6708E007F110023B6F06
:1023100013444D221A703B6F01333B673B6F2A2BEE
:10232000F3DD07F110014FF4FA632B226D4804F03E
:10233000B0FA0346002B0AD007F110014FF4FA63FC
:102340002B22694804F0A5FA0346002B14D1002380
:10235000FB660BE007F11002FB6E13441B78194675
:102360005D48FEF70BFAFB6E0133FB66FB6E2A2B12
:10237000F0D95A48FEF702FA96220021554809F092
:10238000C3FC5A4B1B78B12B03D0584B1B78B22B94
:102390000CD1574B1B68013B554A1360554B1B68CA
:1023A000013B544A1360514B00221A70524B1B6878
:1023B000012B0ED14E4B02221A60434B00221A60B1
:1023C0004E4B00221A604C4B00221A604C4B0022EC
:1023D0001A60474B1B68002B09D13B4B00221A6047
:1023E000464B01221A604748FEF7C8F902E0434B0A
:1023F00000221A604448FEF7A7F9444B1B781846A0
:10240000FEF734FD40F6B8314FF49660FEF758FD04
:102410003E4B1B7819463E48FEF770FD3D48FEF7DF
:10242000ADF93D493D48FEF7A9F93D4B5B681946BA
:102430003C48FEF7A3F93A4B9B6819463A48FEF729
:102440009DF9374B5B7B19463848FEF797F9384BB7
:102450001B7819463748FEF791F9354B1B7A194618
:102460003548FEF78BF9324B5B8819463348FEF747
:1024700085F92F4B1B7919463148FEF77FF92C4B14
:10248000DB7919462F48FEF779F92F48FEF776F9E0
:10249000214808F007FA0021012008F04BFE6FF0F8
:1024A0007F4008F02BF8294B1B789BB21A4628492D
:1024B0000C4804F039FB254B1B789BB21A46244983
:1024C000094804F031FBA6E19C030020D004002061
:1024D000D0CC00083804002080C6000888C6000858
:1024E0000CCD00088806002060050020DC040020D8
:1024F0000400002008000020E0040020D804002090
:10250000E404002044CD000820A1070000000020C2
:10251000AC02002074CB00086859F219A0CB000867
:102520009002002044C7000854C7000870C7000884
:102530007C0200208CC70008A0C70008B8C70008AC
:10254000D0C70008E8C70008FCC700080100002049
:1025500018030020FB89022B40F02A816922B04930
:10256000B04807F03FFE08F05EFC0346DAB2AE4B1F
:102570001A70AE48FEF702F9002387F85B30A84BCB
:102580001B781946A748FEF73BFC034687F85B30EB
:102590006B46BB6097F85B603346013B7B65F3B2EB
:1025A00000223B607A604FF000024FF00003796830
:1025B000CB00D7E90001844643EA5C730146CA00B8
:1025C000F3B200229A4693464FF000024FF0000308
:1025D0004FEACB0343EA5A734FEACA023346073342
:1025E000DB08DB00ADEB030D6B4600333B650023DE
:1025F000BB6613E08B4ABB6E134419783A6DBB6E11
:1026000013440A461A703A6DBB6E13441B78194680
:102610008748FEF7B3F8BB6E0133BB6697F85B30B3
:10262000BA6E9A42E6DB8348FEF7A8F897F85B306B
:10263000043B87F84F3097F84F100B46013BBB64C3
:10264000CBB20022984691464FF000024FF00003B3
:102650004FEAC90343EA58734FEAC802CBB20022DB
:102660001C4615464FF000024FF00003EB0043EA12
:102670005473E2000B460733DB08DB00ADEB030DC0
:102680006B4600337B6400237B6601233B660EE0D0
:102690003A6D3B6E134419787A6C7B6E13440A468C
:1026A0001A707B6E01337B663B6E01333B6697F895
:1026B0004F303A6E9A42EBDD5E48FEF75FF800233A
:1026C000A7F8423097F84F301946786CFEF7E2F8D9
:1026D0000346A7F84230B7F842301B0A9BB2DBB280
:1026E00087F83C30B7F84230DBB287F83D3097F8D6
:1026F0005B30033B3A6DD35C87F8413097F85B3031
:10270000023B3A6DD35C87F8403097F83C3097F83D
:1027100041209A420FD197F83D3097F840209A42D5
:1027200009D133461A460021386D09F0EDFA424BC3
:1027300001221A602AE04148FEF720F83E4B0022B1
:102740001A603F4B53221A703D4BAC225A703C4BDF
:1027500004229A703A4B0222DA70394BCC221A7159
:10276000374BEE225A710623FB6507E0344AFB6DB6
:10277000134400221A70FB6D0133FB65314B1B784B
:102780001A46FB6D9342F1DBFEF7E4FAD7F808D066
:102790002D4B1B789BB21A462C492D4804F0C4F9E6
:1027A000294B1B789BB21A4628492A4804F0BCF9E9
:1027B000FB89B3F5007F2ED1194B1B781846FEF725
:1027C00055FB40F6B8314FF49660FEF779FB144B99
:1027D0001B7819461348FEF791FB1F48FDF7CEFF03
:1027E0001E4808F05FF80021012008F0A3FC6FF0FC
:1027F0007F4007F083FE144B1B789BB21A461349A7
:10280000134804F091F9104B1B789BB21A460F49FC
:10281000104804F089F97C37BD46BDE8F08F00BF51
:1028200000000020AC020020150300207CCD000831
:1028300080C6000888C60008EC0400209CCD000873
:102840007003002002000020010000201803002077
:102850008806002060050020CCCD00086859F219D8
:1028600080B400AF72B600BFFEE7000080B586B04E
:1028700000AF072200216C4809F046FA6B4B00229A
:102880001A7041F6583307226749694804F087F8FF
:102890000346002B0AD041F65833072262496548A7
:1028A00004F07DF80346002B40F0AA806248FDF753
:1028B00065FF00237B610AE05B4A7B6913441B7858
:1028C00019465E48FDF75AFF7B6901337B617B69DE
:1028D000062BF1DD5A48FDF751FF0023FB71524BE7
:1028E0001B78FA799A4211D100233B610BE03B69D6
:1028F00001334D4AD15C4C4A3B6913440A461A7075
:102900003B6901333B613B69062BF0D9464B1B7891
:10291000532B3AD1444B5B797E2B36D14948FDF796
:102920002DFF4FF4FA6307223F49414803F0B1FFFE
:102930000346002B09D04FF4FA6307223A493D4879
:1029400003F0A7FF0346002B58D13F48FDF716FFC1
:102950000023FB600AE0344AFB6813441B781946E5
:102960003648FDF70BFFFB680133FB60FB68062B65
:10297000F1DD3348FDF702FF2C4B01221A700722CC
:102980000021294809F0C0F938E03048FDF7F6FE8B
:102990004FF4FA6307222449254803F07AFF0346DF
:1029A000002B09D041F6583307221F49214803F074
:1029B00070FF0346002B31D12548FDF7DFFE0023D1
:1029C000BB600AE0184ABB6813441B7819461B48D1
:1029D000FDF7D4FEBB680133BB60BB68062BF1DD9D
:1029E0001748FDF7CBFE072200210F4809F08CF9AC
:1029F0000E4B00221A70FFF739FF0FE000BF0DE009
:102A00000A4B00221A701348FDF7B8FE0722002176
:102A1000054809F079F9FFF729FF00E000BF00BF82
:102A20001837BD4680BD00BFF4040020D404002048
:102A30008806002060050020F4CD000824CE0008A0
:102A40002CCE000830CE000858CE000884CE0008F6
:102A5000B0CE0008E0CE000880B400AF00BFBD4695
:102A600080BC704780B400AFFEE780B400AFFEE7E3
:102A700080B400AFFEE780B400AFFEE780B400AFE3
:102A8000FEE780B400AF00BFBD4680BC704780B495
:102A900000AF00BFBD4680BC704780B400AF00BF30
:102AA000BD4680BC704780B500AF00F0C3FD00BFDD
:102AB00080BD000080B500AF024801F0BDF800BF46
:102AC00080BD00BF1C07002080B500AF024801F0A8
:102AD000B3F800BF80BD00BF7C07002080B500AF09
:102AE000024801F0A9F800BF80BD00BFDC0700204C
:102AF00080B500AF024801F09FF800BF80BD00BF65
:102B00003C08002080B500AF024801F095F800BFF6
:102B100080BD00BF9C08002080B500AF024801F0D6
:102B20008BF800BF80BD00BFFC08002080B500AF5F
:102B3000024804F045F800BF80BD00BFF405002046
:102B400080B500AF024804F03BF800BF80BD00BF75
:102B50008806002080B500AF024804F031F800BFBD
:102B600080BD00BF6005002080B500AF024803F0C3
:102B7000C3F900BF80BD00BFFC04002080B485B055
:102B800000AF78604FF0B0435A6E4FF0B0417B68B1
:102B900013434B664FF0B0435A6E7B681340FB60A3
:102BA000FB6800BF1437BD4680BC704780B500AFDE
:102BB000064B08221A60054802F01CFF0346002B52
:102BC00001D0FFF74DFE00BF80BD00BFFC04002018
:102BD00080B582B000AF78600120FFF7CFFF002200
:102BE0000021322000F00FFE322000F026FE00BF50
:102BF0000837BD4680BD80B400AF00BFBD4680BC75
:102C00007047000080B582B000AF00237B60064BA8
:102C10001B78002B02D000F008F978607B6818461A
:102C20000837BD4680BD00BF0805002080B582B0D2
:102C300000AF78607B68184600F025F900BF0837C0
:102C4000BD4680BD80B586B000AF7860144A154B94
:102C5000D31A7B617B693B61134B1B68002B02D14C
:102C6000114B124A1A60104B1A687B6813443A6978
:102C70009A4207D209F050F803460C221A604FF02E
:102C8000FF3309E0084B1B68FB60074B1A687B6841
:102C90001344054A1360FB6818461837BD4680BDCB
:102CA00000000120000400000C050020680C00203A
:102CB00080B400AF00BFBD4680BC704780B485B013
:102CC00000AF78604FF0B0439A6D4FF0B0417B6831
:102CD00013438B654FF0B0439A6D7B681340FB60E4
:102CE000FB6800BF1437BD4680BC704780B588B014
:102CF00000AF07F1100300221A605A609A60DA6090
:102D00003B1D00221A605A609A601D4B4FF08042B2
:102D10001A601B4B2F225A60194B00229A60184BE5
:102D2000184ADA60164B00221A61154B80229A610C
:102D3000134803F07FFA0346002B01D0FFF790FD04
:102D40004FF480533B6107F1100319460C4803F020
:102D50000DFB0346002B01D0FFF782FD00237B60B3
:102D60000023FB603B1D1946054803F0C3FC0346E6
:102D7000002B01D0FFF774FD00BF2037BD4680BD9A
:102D80001005002040420F0080B582B000AF78608F
:102D90007B681B68B3F1804F02D10120FFF78EFFE3
:102DA00000BF0837BD4680BD80B483B000AF0023AC
:102DB000FB71FB7918460C37BD4680BC704780B468
:102DC00085B000AF78600023FB73FB7B1846143797
:102DD000BD4680BC704780B483B000AF0023FB7158
:102DE000FB7918460C37BD4680BC704780B400AFF5
:102DF000024B1B681846BD4680BC70475C0500202E
:102E000080B400AF024B1B681846BD4680BC7047BB
:102E10005C05002080B483B000AF00237B607B683A
:102E200018460C37BD4680BC704780B483B000AFF5
:102E300000237B607B6818460C37BD4680BC70471A
:102E400080B483B000AF00237B607B6818460C37EA
:102E5000BD4680BC704780B485B000AF7860002369
:102E6000FB60FB6818461437BD4680BC704780B4D1
:102E700085B000AF78600023FB60FB68184614370C
:102E8000BD4680BC704780B483B000AF786000BF9F
:102E90000C37BD4680BC704780B485B000AF786009
:102EA0004FF0B043DA6C4FF0B0417B681343CB6412
:102EB0004FF0B043DA6C7B681340FB60FB6800BFE7
:102EC0001437BD4680BC704780B485B000AF7860D1
:102ED0004FF0B0439A6D4FF0B0417B6813438B6560
:102EE0004FF0B0439A6D7B681340FB60FB6800BFF6
:102EF0001437BD4680BC704780B485B000AF7860A1
:102F00004FF0B043DA6D4FF0B0417B681343CB65AF
:102F10004FF0B043DA6D7B681340FB60FB6800BF85
:102F20001437BD4680BC704780B485B000AF786070
:102F30004FF0B0431A6E4FF0B0417B6813430B66FD
:102F40004FF0B0431A6E7B681340FB60FB6800BF14
:102F50001437BD4680BC704780B500AF224B234A72
:102F60001A60214B4FF4E1325A601F4B00229A60E5
:102F70001D4B0022DA601C4B00221A611A4B0C22F6
:102F80005A61194B00229A61174B00221A62164BA4
:102F900000225A62144B00229A62134B00225A6696
:102FA000114803F026FC0346002B01D0FFF758FC24
:102FB00000210D4805F04EF80346002B01D0FFF725
:102FC0004FFC0021084805F083F80346002B01D090
:102FD000FFF746FC044805F005F80346002B01D036
:102FE000FFF73EFC00BF80BD600500200080004070
:102FF00080B500AF224B234A1A60214B4FF4E132D7
:103000005A601F4B00229A601D4B0022DA601C4B55
:1030100000221A611A4B0C225A61194B00229A6144
:10302000174B0022DA61164B00221A62144B002261
:103030005A62134B00229A62114803F0DAFB0346EE
:10304000002B01D0FFF70CFC00210D4805F002F821
:103050000346002B01D0FFF703FC0021084805F0D0
:1030600037F80346002B01D0FFF7FAFB044804F0C1
:10307000B9FF0346002B01D0FFF7F2FB00BF80BD74
:10308000F40500200038014080B500AF224B234AF0
:103090001A60214B4FF4E1325A601F4B00229A60B4
:1030A0001D4B0022DA601C4B00221A611A4B0C22C5
:1030B0005A61194B00229A61174B0022DA61164BB4
:1030C00000221A62144B00225A62134B00229A62A9
:1030D000114803F08EFB0346002B01D0FFF7C0FB25
:1030E00000210D4804F0B6FF0346002B01D0FFF786
:1030F000B7FB0021084804F0EBFF0346002B01D08A
:10310000FFF7AEFB044804F06DFF0346002B01D02F
:10311000FFF7A6FB00BF80BD8806002000440040EA
:1031200080B596B000AF786007F1440300221A60C2
:103130005A609A60DA601A6107F10C0338220021A4
:10314000184608F0E1FD7B681B68994A934240F0FD
:1031500092802023FB600023FB6107F10C031846DB
:1031600002F094FA0346002B01D0FFF779FB01200F
:10317000FFF7C2FE0420FFF78FFE03237B640223C8
:10318000BB640023FB6400233B6508237B6507F1D8
:1031900044031946874800F0EDFE874B874A1A60C2
:1031A000854B15225A60844B00229A60824B002284
:1031B000DA60814B80221A617F4B00225A617E4B7C
:1031C00000229A617C4B0022DA617B4B00221A625A
:1031D000794800F04DFB0346002B01D0FFF740FB80
:1031E0001021754800F0EEFD0346002B01D0FFF7DB
:1031F00037FB7B68704AC3F880206F4A7B68936214
:103200006F4B704A1A606E4B16225A606C4B10223C
:103210009A606B4B0022DA60694B80221A61684B1E
:1032200000225A61664B00229A61654B0022DA61E6
:10323000634B00221A62624800F01AFB0346002B1F
:1032400001D0FFF70DFB10215D4800F0BBFD0346E8
:10325000002B01D0FFF704FB7B68594ADA67584A14
:103260007B68936200220021262000F0CCFA262001
:1032700000F0E3FA4CE17B681B68534A934240F04C
:10328000AD800123FB604FF440333B6107F10C0339
:10329000184602F0FBF90346002B01D0FFF7E0FAD5
:1032A0004FF48040FFF740FE0120FFF7F5FD4FF49B
:1032B000C0637B640223BB640023FB6400233B6583
:1032C00007237B6507F1440319464FF0904000F057
:1032D00051FE3E4B3E4A1A603C4B11225A603B4B1A
:1032E00000229A60394B0022DA60384B80221A6142
:1032F000364B00225A61354B00229A61334B002233
:10330000DA61324B00221A62304800F0B1FA03460B
:10331000002B01D0FFF7A4FA10212C4800F052FD39
:103320000346002B01D0FFF79BFA7B68274AC3F8BE
:103330008020264A7B689362264B274A1A60254BD9
:1033400012225A60234B10229A60224B0022DA602C
:10335000204B80221A611F4B00225A611D4B002214
:103360009A611C4B0022DA611A4B00221A6219483A
:1033700000F07EFA0346002B01D0FFF771FA10210E
:10338000144800F01FFD0346002B01D0FFF768FA38
:103390007B68104ADA670F4A7B689362002200213B
:1033A000242000F030FA242000F047FAB0E000BFFB
:1033B00000800040000800481C0700200800024070
:1033C0007C0700201C00024000380140DC07002080
:1033D000300002403C080020440002407B681B682B
:1033E0004D4A934240F094800223FB604FF4402307
:1033F0007B6107F10C03184602F048F90346002BE5
:1034000001D0FFF72DFA4FF40030FFF75DFD0120EA
:10341000FFF742FD0C237B640223BB640023FB64A3
:1034200000233B6507237B6507F1440319464FF0F2
:10343000904000F09FFD394B394A1A60374B1322F8
:103440005A60364B00229A60344B0022DA60334BCC
:1034500080221A61314B00225A61304B00229A615E
:103460002E4B0022DA612D4B00221A622B4800F00D
:10347000FFF90346002B01D0FFF7F2F9102127488E
:1034800000F0A0FC0346002B01D0FFF7E9F97B68B0
:10349000224AC3F88020214A7B689362214B224A4A
:1034A0001A60204B14225A601E4B10229A601D4B4A
:1034B0000022DA601B4B80221A611A4B00225A61EB
:1034C000184B00229A61174B0022DA61154B00223B
:1034D0001A62144800F0CCF90346002B01D0FFF724
:1034E000BFF910210F4800F06DFC0346002B01D0FE
:1034F000FFF7B6F97B680B4ADA670A4A7B68936282
:1035000000220021252000F07EF9252000F095F909
:1035100000BF5837BD4680BD004400409C080020D5
:1035200058000240FC0800206C0002400D4885460F
:10353000FFF7BEFB0C480D490D4A002302E0D458AA
:10354000C4500433C4188C42F9D30A4A0A4C0023ED
:1035500001E013600432A242FBD308F0E3FBFDF765
:1035600057FFFEE700000120000000206800002057
:10357000CCD1000868000020680C0020FEE70000A5
:1035800080B582B000AF0023FB71032000F030F95A
:1035900001F09EFE0346094A1360002000F010F877
:1035A0000346002B02D00123FB7101E0FFF754FA20
:1035B000FB7918460837BD4680BD00BF0C000020CF
:1035C00080B584B000AF78600023FB73174B1B7885
:1035D000002B24D001F07CFE0246144B1B781946C8
:1035E0004FF47A73B3FBF1F3B2FBF3F3184600F038
:1035F00032F90346002B0FD17B680F2B09D800222C
:1036000079684FF0FF3000F0FEF8094A7B681360DC
:1036100007E00123FB7304E00123FB7301E00123B6
:10362000FB73FB7B18461037BD4680BD140000209D
:103630001000002080B400AF054B1B781A46054BE4
:103640001B681344034A136000BFBD4680BC70472B
:10365000140000205C09002080B485B000AF7860C1
:103660007B6803F00703FB600C4BDB68BB60BA6848
:103670004FF6FF031340BB60FB681A02BB6813439D
:1036800043F0BF6343F40033BB60044ABB68D360BC
:1036900000BF1437BD4680BC704700BF00ED00E09E
:1036A00080B400AF044BDB681B0A03F00703184625
:1036B000BD4680BC704700BF00ED00E080B483B021
:1036C00000AF0346FB7197F90730002B0BDBFB794A
:1036D00003F01F02064997F907305B09012000FA41
:1036E00002F241F8232000BF0C37BD4680BC704772
:1036F00000E100E080B483B000AF03463960FB71A5
:1037000097F90730002B0ADB3B68DAB20C4997F9CE
:1037100007301201D2B20B4483F800230AE03B6861
:10372000DAB20849FB7903F00F03043B1201D2B26D
:103730000B441A7600BF0C37BD4680BC704700BFF3
:1037400000E100E000ED00E080B489B000AFF86077
:10375000B9607A60FB6803F00703FB61FB69C3F1A2
:103760000703042B28BF0423BB61FB690433062B2A
:1037700002D9FB69033B00E000237B614FF0FF327D
:10378000BB6902FA03F3DA43BB681A407B699A40CB
:103790004FF0FF317B6901FA03F3D9437B680B409B
:1037A000134318462437BD4680BC704780B582B0AD
:1037B00000AF78607B68013BB3F1807F01D30123C8
:1037C0000FE00A4A7B68013B53600F214FF0FF3046
:1037D000FFF790FF054B00229A60044B07221A6006
:1037E000002318460837BD4680BD00BF10E000E04A
:1037F00080B582B000AF78607868FFF72DFF00BF1A
:103800000837BD4680BD80B586B000AF0346B960BD
:103810007A60FB73FFF744FF78617A68B96878696A
:10382000FFF792FF024697F90F3011461846FFF74F
:1038300061FF00BF1837BD4680BD80B582B000AFC4
:103840000346FB7197F907301846FFF737FF00BFB3
:103850000837BD4680BD80B582B000AF786078681B
:10386000FFF7A4FF034618460837BD4680BD000099
:1038700080B582B000AF78607B68002B01D1012356
:103880008EE07B681B681A46474B9A420FD87B68CC
:103890001B681A46454B1344454AA2FB03231B09E8
:1038A0009A007B685A647B68424A1A640EE07B681F
:1038B0001B681A46404B13443D4AA2FB03231B09D5
:1038C0009A007B685A647B683C4A1A647B680222CF
:1038D00083F825207B681B681B687A68126823F4CC
:1038E000FF4323F0700313607B681B6819687B68D3
:1038F0009A687B68DB681A437B681B691A437B689C
:103900005B691A437B689B691A437B68DB691A43CE
:103910007B681B6A1A437B681B680A431A607868D5
:1039200000F0BCFA7B689B68B3F5804F02D17B68DE
:1039300000225A607B685A687B689B6C02F07F02A9
:103940001A607B68DB6C7A68126D5A607B685B6812
:10395000002B10D07B685B68042B0CD8786800F0D3
:10396000E5FA7B685B6D00221A607B689B6D7A6864
:10397000D26D5A6008E07B6800225A657B6800229D
:103980009A657B680022DA657B680022DA637B68CF
:10399000012283F825207B68002283F8242000235D
:1039A00018460837BD4680BD07040240F8FFFDBF3A
:1039B000CDCCCCCC00000240F8FBFDBF000402409F
:1039C00080B586B000AFF860B9607A603B600023D4
:1039D000FB75FB6893F82430012B01D1022369E0C9
:1039E000FB68012283F82420FB6893F82530DBB2C2
:1039F000012B55D1FB68022283F82520FB680022A9
:103A0000DA63FB681B681A68FB681B6822F0010216
:103A10001A603B687A68B968F86800F002FAFB68D7
:103A20001B6B002B08D0FB681B681A68FB681B68BF
:103A300042F00E021A600FE0FB681B681A68FB6810
:103A40001B6822F004021A60FB681B681A68FB6896
:103A50001B6842F00A021A60FB689B6C1B6803F447
:103A60008033002B07D0FB689B6C1A68FB689B6C4B
:103A700042F480721A60FB685B6D002B07D0FB6814
:103A80005B6D1A68FB685B6D42F480721A60FB68BC
:103A90001B681A68FB681B6842F001021A6008E0A4
:103AA000FB688022DA63FB68002283F8242001236C
:103AB000FB75FB7D18461837BD4680BD80B483B0CA
:103AC00000AF78607B68002B01D101234FE07B6859
:103AD00093F82530DBB2022B08D07B680422DA632E
:103AE0007B68002283F82420012340E07B681B6868
:103AF0001A687B681B6822F00E021A607B689B6C58
:103B00001A687B689B6C22F480721A607B681B6861
:103B10001A687B681B6822F001021A607B685B6C84
:103B200003F01C027B681B6C012101FA02F25A604F
:103B30007B68DB6C7A68126D5A607B685B6D002B6A
:103B40000CD07B685B6D1A687B685B6D22F48072B9
:103B50001A607B689B6D7A68D26D5A607B6801221F
:103B600083F825207B68002283F824200023184650
:103B70000C37BD4680BC704780B584B000AF78601C
:103B80000023FB737B6893F82530DBB2022B05D052
:103B90007B680422DA630123FB7347E07B681B68C0
:103BA0001A687B681B6822F00E021A607B681B682B
:103BB0001A687B681B6822F001021A607B689B6CA4
:103BC0001A687B689B6C22F480721A607B685B6C5D
:103BD00003F01C027B681B6C012101FA02F25A609F
:103BE0007B68DB6C7A68126D5A607B685B6D002BBA
:103BF0000CD07B685B6D1A687B685B6D22F4807209
:103C00001A607B689B6D7A68D26D5A607B6801226E
:103C100083F825207B68002283F824207B689B6B37
:103C2000002B03D07B689B6B78689847FB7B18461A
:103C30001037BD4680BD000080B584B000AF78600D
:103C40007B681B6C1B68FB607B681B681B68BB6028
:103C50007B685B6C03F01C0304229A40FB681340F2
:103C6000002B27D0BB6803F00403002B22D07B6815
:103C70001B681B6803F02003002B07D17B681B68BF
:103C80001A687B681B6822F004021A607B685B6C10
:103C900003F01C027B681B6C042101FA02F25A60DB
:103CA0007B681B6B002B00F081807B681B6B786846
:103CB00098477BE07B685B6C03F01C0302229A4010
:103CC000FB681340002B3DD0BB6803F00203002BC0
:103CD00038D07B681B681B6803F02003002B0BD1D6
:103CE0007B681B681A687B681B6822F00A021A60EE
:103CF0007B68012283F825207B681B681A462E4BBF
:103D00009A4209D97B685B6C03F01C032B4A0221A1
:103D100001FA03F3536008E07B685B6C03F01C035B
:103D2000274A022101FA03F353607B68002283F8DB
:103D300024207B68DB6A002B38D07B68DB6A7868DC
:103D4000984733E07B685B6C03F01C0308229A40C1
:103D5000FB681340002B2AD0BB6803F00803002B3C
:103D600025D07B681B681A687B681B6822F00E02EE
:103D70001A607B685B6C03F01C027B681B6C012182
:103D800001FA02F25A607B680122DA637B68012241
:103D900083F825207B68002283F824207B685B6BF6
:103DA000002B04D07B685B6B7868984700BF00BF2E
:103DB0001037BD4680BD00BF8000024000040240B5
:103DC0000000024080B485B000AF78603960002305
:103DD000FB727B68002B03D10123FB72FB7A1BE093
:103DE0007B681B681B68FB603B6803F01003002BBB
:103DF0000DD03B6803F48013002B04D0FB6843F420
:103E00008013FB6003E0FB6823F48013FB607B6896
:103E10001B68FA681A60FB7A18461437BD4680BCE6
:103E2000704780B485B000AFF860B9607A603B60DD
:103E3000FB68DB6CFA68126D5A60FB685B6D002BE7
:103E400004D0FB689B6DFA68D26D5A60FB685B6CAE
:103E500003F01C02FB681B6C012101FA02F25A609C
:103E6000FB681B683A685A60FB689B68102B08D196
:103E7000FB681B687A689A60FB681B68BA68DA603E
:103E800007E0FB681B68BA689A60FB681B687A6881
:103E9000DA6000BF1437BD4680BC704780B485B07F
:103EA00000AF78607B681B681A461C4B9A4213D897
:103EB0007B685B6C9B089B0003F1804303F5023336
:103EC0007A6893647B681B68DBB2083B144AA2FBE8
:103ED00003231B09FB6011E07B685B6C9B089A0065
:103EE000104B13447A6893647B681B68DBB2083B11
:103EF0000B4AA2FB03231B090733FB607B680A4ABA
:103F0000DA64FB6803F01F0301229A407B681A659C
:103F100000BF1437BD4680BC704700BF0704024095
:103F2000CDCCCCCC1C0802408008024080B485B0C7
:103F300000AF78607B685B6803F07F03FB60FA6822
:103F40000A4B13449B001A467B685A657B68084AF3
:103F50009A65FB68013B03F0030301229A407B68EA
:103F6000DA6500BF1437BD4680BC70473F82001041
:103F70004009024080B487B000AF78603960002308
:103F80007B6140E13B681A6801217B6901FA03F318
:103F90001340FB60FB68002B00F032813B685B68DC
:103FA00003F00303012B05D03B685B6803F00303B8
:103FB000022B30D17B689B683B617B695B000322ED
:103FC00002FA03F3DB433A6913403B613B68DA686A
:103FD0007B695B0002FA03F33A6913433B617B6838
:103FE0003A699A607B685B683B6101227B6902FAEF
:103FF00003F3DB433A6913403B613B685B681B0991
:1040000003F001027B6902FA03F33A6913433B614F
:104010007B683A695A603B685B6803F00303032BD3
:1040200017D07B68DB683B617B695B00032202FA87
:1040300003F3DB433A6913403B613B689A687B6951
:104040005B0002FA03F33A6913433B617B683A6908
:10405000DA603B685B6803F00303022B23D17B69C2
:10406000DA087B68083253F822303B617B6903F041
:1040700007039B000F2202FA03F3DB433A69134064
:104080003B613B681A697B6903F007039B0002FAF6
:1040900003F33A6913433B617B69DA087B680832B2
:1040A000396943F822107B681B683B617B695B00C0
:1040B000032202FA03F3DB433A6913403B613B6896
:1040C0005B6803F003027B695B0002FA03F33A6961
:1040D00013433B617B683A691A603B685B6803F491
:1040E0004033002B00F08C804E4A7B699B080233E2
:1040F00052F823303B617B6903F003039B000722E6
:1041000002FA03F3DB433A6913403B617B68B3F186
:10411000904F0DD07B68444A934207D07B68434A56
:10412000934201D1022304E0072302E0012300E0CF
:1041300000237A6902F00302920093403A69134324
:104140003B6138497B699B0802333A6941F8232077
:10415000374B1B683B61FB68DB433A6913403B61AB
:104160003B685B6803F48013002B03D03A69FB685B
:1041700013433B612E4A3B6913602D4B5B683B61E7
:10418000FB68DB433A6913403B613B685B6803F4BF
:104190000013002B03D03A69FB6813433B61244AA8
:1041A0003B695360224BD3F880303B61FB68DB43B3
:1041B0003A6913403B613B685B6803F48033002B32
:1041C00003D03A69FB6813433B61194A3B69C2F863
:1041D0008030174BD3F884303B61FB68DB433A698E
:1041E00013403B613B685B6803F40033002B03D052
:1041F0003A69FB6813433B610D4A3B69C2F884305E
:104200007B6901337B613B681A687B6922FA03F39F
:10421000002B7FF4B7AE00BF00BF1C37BD4680BC8B
:10422000704700BF0000014000040048000800483B
:104230000008005880B483B000AF78600B467B80E4
:1042400013467B707B78002B03D07A887B689A6159
:1042500002E07A887B689A6200BF0C37BD4680BC5A
:104260007047000080B400AF044B1B68034A43F45E
:104270008073136000BFBD4680BC704700040058C7
:1042800080B400AF034B1B6803F4C0631846BD46FF
:1042900080BC70470004005880B400AF064B1B6818
:1042A00003F48073B3F5807F01D1012300E0002384
:1042B0001846BD4680BC70470004005880B400AF6B
:1042C0004FF0B0431B684FF0B04243F4001313604B
:1042D00000BFBD4680BC704780B400AF4FF0B04314
:1042E0001B684FF0B04223F40013136000BFBD46BB
:1042F00080BC704780B400AF4FF0B0431B6803F43C
:104300008013B3F5801F01D1012300E0002318467C
:10431000BD4680BC704780B400AF4FF0B0431B680F
:104320004FF0B04243F48033136000BFBD4680BC01
:10433000704780B400AF4FF0B0431B684FF0B042FD
:1043400023F48033136000BFBD4680BC704780B447
:1043500000AF4FF0B0431B6803F40033B3F5003FE8
:1043600001D1012300E000231846BD4680BC704700
:1043700080B400AF4FF0B0431B684FF0B04243F43D
:104380008073136000BFBD4680BC704780B400AF2F
:104390004FF0B0431B684FF0B04223F480731360BA
:1043A00000BFBD4680BC704780B400AF4FF0B04343
:1043B0001B6803F48063B3F5806F01D1012300E033
:1043C00000231846BD4680BC704780B483B000AF60
:1043D00078604FF0B0435B6823F0FE427B681B06B9
:1043E0004FF0B04113434B6000BF0C37BD4680BC5B
:1043F000704780B400AF4FF0B043D3F8903003F073
:104400000203022B01D1012300E000231846BD4620
:1044100080BC704780B400AF4FF0B043D3F8943005
:104420004FF0B04243F00103C2F8943000BFBD46E4
:1044300080BC704780B400AF4FF0B043D3F89430E5
:104440004FF0B04223F00103C2F8943000BFBD46E4
:1044500080BC704780B400AF4FF0B043D3F89430C5
:1044600003F00203022B01D1012300E000231846D0
:10447000BD4680BC704780B400AF4FF0B0431B68AE
:104480004FF0B04243F00103136000BFBD4680BC53
:10449000704780B400AF4FF0B0431B684FF0B0429C
:1044A00023F00103136000BFBD4680BC704780B499
:1044B00000AF4FF0B0431B6803F00203022B01D1A1
:1044C000012300E000231846BD4680BC704780B43D
:1044D00000AF4FF0B0431B6803F00803082B01D175
:1044E000012300E000231846BD4680BC704780B41D
:1044F00000AF4FF0B0431B6803F0F0031846BD4611
:1045000080BC704780B400AF4FF0B043D3F8943014
:1045100003F470631846BD4680BC704780B483B016
:1045200000AF78604FF0B0435B6823F47F427B6854
:104530001B024FF0B04113434B6000BF0C37BD4628
:1045400080BC704780B483B000AF78604FF0B04358
:104550009B6823F003024FF0B0417B6813438B60EC
:1045600000BF0C37BD4680BC704780B400AF4FF031
:10457000B0439B6803F00C031846BD4680BC7047EF
:1045800080B483B000AF78604FF0B0439B6823F0F5
:10459000F0024FF0B0417B6813438B6000BF0C37D3
:1045A000BD4680BC704780B483B000AF78604FF0E8
:1045B000B043D3F8083123F0F0024FF0B0417B68EC
:1045C0001343C1F8083100BF0C37BD4680BC7047AB
:1045D00080B483B000AF78604FF0B043D3F80831B7
:1045E00023F00F027B681B094FF0B0411343C1F861
:1045F000083100BF0C37BD4680BC704780B483B023
:1046000000AF78604FF0B0439B6823F4E0624FF056
:10461000B0417B6813438B6000BF0C37BD4680BC44
:10462000704780B483B000AF78604FF0B0439B68B0
:1046300023F460524FF0B0417B6813438B6000BF9E
:104640000C37BD4680BC704780B400AF4FF0B0431C
:104650009B6803F0F0031846BD4680BC704780B4E9
:1046600000AF4FF0B043D3F808311B0103F0F00363
:104670001846BD4680BC704780B400AF4FF0B043D1
:104680009B6803F4E0631846BD4680BC704780B465
:1046900000AF4FF0B0439B6803F460531846BD462B
:1046A00080BC704780B400AF4FF0B0431B684FF040
:1046B000B04243F08073136000BFBD4680BC7047BA
:1046C00080B400AF4FF0B0431B684FF0B04223F00E
:1046D0008073136000BFBD4680BC704780B400AFDC
:1046E0004FF0B0431B6803F00073B3F1007F01D1BA
:1046F000012300E000231846BD4680BC704780B40B
:1047000000AF4FF0B043DB681B0A03F07F0318468D
:10471000BD4680BC704780B400AF4FF0B043DB684B
:1047200003F060431846BD4680BC704780B400AFBC
:104730004FF0B043DB6803F070031846BD4680BC01
:10474000704780B400AF4FF0B043DB6803F0030361
:104750001846BD4680BC704780B400AF4FF0B043F0
:104760009B6803F48033B3F5803F01D1012300E05F
:1047700000231846BD4680BC704780B400AF4FF0A0
:10478000B043D3F8083103F40033B3F5003F01D14F
:10479000012300E000231846BD4680BC704780B46A
:1047A00000AF4FF0B043D3F8083103F48033B3F5D2
:1047B000803F01D1012300E000231846BD4680BCA4
:1047C000704780B400AF4FF0B0439B6803F40033F0
:1047D000B3F5003F01D1012300E000231846BD4698
:1047E00080BC704780B400AF4FF0B0439B6803F4C7
:1047F0008023B3F5802F01D1012300E00023184668
:10480000BD4680BC7047000080B588B000AF7860BE
:104810007B68002B01D101236FE3FFF7A6FEF8614F
:10482000FFF78FFFB8617B681B6803F02003002B44
:1048300000F0C480FB69002B05D0FB690C2B76D1FE
:10484000BB69012B73D17B681B6A002B01D101234B
:1048500053E37B689A6A4FF0B0431B6803F0080388
:10486000002B05D04FF0B0431B6803F0F00306E0C7
:104870004FF0B043D3F894301B0903F0F003934298
:1048800022D27B689B6A184600F05AFD0346002B33
:1048900001D0012331E34FF0B0431B684FF0B04229
:1048A00043F0080313604FF0B0431B6823F0F0029D
:1048B0007B689B6A4FF0B04113430B607B685B6A77
:1048C0001846FFF72BFE21E04FF0B0431B684FF076
:1048D000B04243F0080313604FF0B0431B6823F06D
:1048E000F0027B689B6A4FF0B04113430B607B681A
:1048F0005B6A1846FFF712FE7B689B6A184600F059
:104900001FFD0346002B01D00123F6E200F0E0FC7E
:104910000346A74A1360A74B1B681846FEF750FED4
:104920000346FB74FB7C002B47D0FB7CE5E27B68F5
:104930001B6A002B2CD0FFF79EFDFEF763F9786110
:1049400008E0FEF75FF902467B69D31A022B01D912
:104950000323D2E2FFF7ABFD0346002BF1D04FF06B
:10496000B0431B684FF0B04243F0080313604FF0B0
:10497000B0431B6823F0F0027B689B6A4FF0B041A4
:1049800013430B607B685B6A1846FFF7C7FD15E0B1
:10499000FFF77FFDFEF736F9786108E0FEF732F9A0
:1049A00002467B69D31A022B01D90323A5E2FFF744
:1049B0007EFD0346002BF1D100E000BF7B681B6841
:1049C00003F00103002B58D0FB69082B05D0FB69CD
:1049D0000C2B08D1BB69032B05D17B685B68002BCE
:1049E0004BD1012389E24FF0B0431B6823F48012BE
:1049F0007B689B684FF0B04113430B607B685B683A
:104A0000B3F5803F02D1FFF786FC0DE07B685B6861
:104A1000B3F5041F04D1FFF751FCFFF77CFC03E062
:104A2000FFF787FCFFF758FC7B685B68002B12D010
:104A3000FEF7E8F8786108E0FEF7E4F802467B69E3
:104A4000D31A642B01D9032357E2FFF780FC0346F6
:104A5000002BF1D011E0FEF7D5F8786108E0FEF701
:104A6000D1F802467B69D31A642B01D9032344E2AF
:104A7000FFF76DFC0346002BF1D17B681B6803F048
:104A80000203002B46D0FB69042B05D0FB690C2BDD
:104A90000ED1BB69022B0BD17B681B69002B01D1A6
:104AA00001232AE27B685B691846FFF78EFC31E040
:104AB0007B681B69002B19D0FFF75AFCFEF7A2F8A0
:104AC000786108E0FEF79EF802467B69D31A022B54
:104AD00001D9032311E2FFF767FC0346002BF1D055
:104AE0007B685B691846FFF770FC13E0FFF74EFC2C
:104AF000FEF788F8786108E0FEF784F802467B69E3
:104B0000D31A022B01D90323F7E1FFF74DFC03462B
:104B1000002BF1D17B681B6803F00803002B6ED0DB
:104B20007B689B69002B56D04FF0B043D3F894308C
:104B3000FB607B68DA69FB6803F010039A4231D0AE
:104B4000FB6803F00203002B06D0FB6803F00103AF
:104B5000002B01D10123D0E1FB6803F00103002BFE
:104B600013D0FFF767FCFEF74DF8786108E0FEF719
:104B700049F802467B69D31A112B01D90323BCE102
:104B8000FFF768FC0346002BF1D14FF0B043D3F898
:104B9000943023F010027B68DB694FF0B04113437F
:104BA000C1F89430FFF736FCFEF72CF878610CE082
:104BB0000C00002010000020FEF724F802467B695C
:104BC000D31A112B01D9032397E1FFF743FC0346C6
:104BD000002BF1D013E0FFF72DFCFEF713F87861FE
:104BE00008E0FEF70FF802467B69D31A112B01D9B2
:104BF000032382E1FFF72EFC0346002BF1D17B68F3
:104C00001B6803F00403002B00F0D880FFF744FB7F
:104C10000346002B13D1FFF725FBFDF7F3FF786167
:104C200008E0FDF7EFFF02467B69D31A022B01D99A
:104C3000032362E1FFF730FB0346002BF1D07B68D2
:104C4000DB68002B7BD07B68DB68852B03D07B681F
:104C5000DB68052B09D14FF0B043D3F890304FF00B
:104C6000B04243F00403C2F89030FDF7CBFF786107
:104C70004FF0B043D3F890304FF0B04243F001030F
:104C8000C2F890300AE0FDF7BDFF02467B69D31AF7
:104C900041F28832934201D903232EE1FFF7A9FBA9
:104CA0000346002BEFD07B68DB68812B03D07B6849
:104CB000DB68852B21D1FDF7A5FF78614FF0B0436C
:104CC000D3F890304FF0B04243F08003C2F89030F8
:104CD0000AE0FDF797FF02467B69D31A41F288325A
:104CE000934201D9032308E14FF0B043D3F8903049
:104CF00003F40063002BECD060E0FDF783FF7861E4
:104D00004FF0B043D3F890304FF0B04223F080031F
:104D1000C2F890300AE0FDF775FF02467B69D31AAE
:104D200041F28832934201D90323E6E04FF0B043C9
:104D3000D3F8903003F40063002BECD13EE0FDF794
:104D400061FF78614FF0B043D3F890304FF0B0423C
:104D500023F08003C2F890300AE0FDF753FF0246CB
:104D60007B69D31A41F28832934201D90323C4E00C
:104D70004FF0B043D3F8903003F40063002BECD134
:104D8000FDF740FF78614FF0B043D3F890304FF01B
:104D9000B04223F00103C2F890300AE0FDF732FF81
:104DA00002467B69D31A41F28832934201D9032328
:104DB000A3E0FFF71EFB0346002BEFD17B68DB6A05
:104DC000002B00F09980FB690C2B6CD07B68DB6AB0
:104DD000022B4BD1FFF774FCFDF714FF786108E05C
:104DE000FDF710FF02467B69D31A0A2B01D9032372
:104DF00083E0FFF773FC0346002BF1D14FF0B04383
:104E0000DA68404B13407A68116B7A68526B114331
:104E10007A68926B120211437A68D26B11437A68F6
:104E2000126C11437A68526C0A434FF0B04113433D
:104E3000CB60FFF737FC4FF0B043DB684FF0B04278
:104E400043F08053D360FDF7DDFE786108E0FDF7A5
:104E5000D9FE02467B69D31A0A2B01D903234CE001
:104E6000FFF73CFC0346002BF1D045E0FFF728FCA0
:104E7000FDF7C8FE786108E0FDF7C4FE02467B69D5
:104E8000D31A0A2B01D9032337E0FFF727FC034687
:104E9000002BF1D14FF0B043DA684FF0B0411A4B1C
:104EA0001340CB6028E07B68DB6A012B01D1012332
:104EB00023E04FF0B043DB68BB61BB6903F0030242
:104EC0007B681B6B9A4215D1BB6903F070027B684B
:104ED0005B6B9A420ED1BB6903F4FE427B689B6B0D
:104EE0001B029A4206D1BB6903F060427B685B6C8F
:104EF0009A4201D0012300E0002318462037BD4626
:104F000080BD00BF8C80C111FCFFFEEE80B584B077
:104F100000AF786039607B68002B01D101232CE160
:104F2000984B1B6803F007033A689A421BD9954BCC
:104F30001B6823F0070293493B6813430B60FDF79E
:104F400061FEF86008E0FDF75DFE0246FB68D31ADB
:104F5000022B01D9032310E18A4B1B6803F00703DE
:104F60003A689A42EFD17B681B6803F00203002B7A
:104F700016D07B689B681846FFF702FBFDF742FEE0
:104F8000F86008E0FDF73EFE0246FB68D31A022BEC
:104F900001D90323F1E0FFF7DFFB0346002BF1D03B
:104FA0007B681B6803F02003002B16D07B685B69CD
:104FB0001846FFF7F8FAFDF725FEF86008E0FDF760
:104FC00021FE0246FB68D31A022B01D90323D4E049
:104FD000FFF7D3FB0346002BF1D07B681B6803F07F
:104FE0004003002B16D07B689B691846FFF7F0FA48
:104FF000FDF708FEF86008E0FDF704FE0246FB68D6
:10500000D31A022B01D90323B7E0FFF7C8FB0346ED
:10501000002BF1D07B681B6803F00403002B16D033
:105020007B68DB681846FFF7E9FAFDF7EBFDF860EF
:1050300008E0FDF7E7FD0246FB68D31A022B01D911
:1050400003239AE0FFF7BDFB0346002BF1D07B68FA
:105050001B6803F00803002B17D07B681B69DB007B
:105060001846FFF7DEFAFDF7CDFDF86008E0FDF722
:10507000C9FD0246FB68D31A022B01D903237CE049
:10508000FFF7B0FB0346002BF1D07B681B6803F0F1
:105090000103002B43D07B685B68022B06D1FFF72E
:1050A00056F90346002B1ED1012366E07B685B683E
:1050B000032B06D1FFF712FB0346002B13D101236C
:1050C0005BE07B685B68002B06D1FFF7F0F90346D5
:1050D000002B08D1012350E0FFF766F90346002BAF
:1050E00001D1012349E07B685B681846FFF72AFA83
:1050F000FDF788FDF8600AE0FDF784FD0246FB68D5
:10510000D31A41F28832934201D9032335E0FFF7E5
:105110002CFA02467B685B689B009A42ECD1194BE3
:105120001B6803F007033A689A421BD2154B1B68B1
:1051300023F0070213493B6813430B60FDF762FD40
:10514000F86008E0FDF75EFD0246FB68D31A022B0B
:1051500001D9032311E00B4B1B6803F007033A68E6
:105160009A42EFD100F0B4F80346074A1360074BA8
:105170001B681846FEF724FA034618461037BD464A
:1051800080BD00BF004000580C000020100000202F
:1051900090B587B000AF00237B6100233B61FFF730
:1051A000E4F9B860FFF7CDFA7860BB68002B05D052
:1051B000BB680C2B39D17B68012B36D1FFF787F9FF
:1051C0000346002B15D1FFF782F90346012B06D1C8
:1051D000FFF78DF903461B0A03F00F0305E0FFF705
:1051E00091F903461B0A03F00F03364A52F82330A5
:1051F00014E0FFF76CF90346012B06D1FFF777F9AE
:1052000003461B0903F00F0305E0FFF77BF9034694
:105210001B0903F00F032B4A52F823303B61BB6894
:10522000002B15D13B697B6112E0BB68042B02D1D6
:10523000254B7B610CE0BB68082B09D1FFF75AF8BE
:105240000346012B02D1204B7B6101E01F4B7B61A8
:10525000FFF78BF903460C2B2FD1FFF772FA78601A
:105260007B68022B03D07B68032B03D00DE0164B29
:10527000FB600DE0FFF73EF80346012B02D1124B15
:10528000FB6005E0114BFB6002E03B69FB6000BF87
:10529000FFF735FA0246FB6803FB02F4FFF746FA14
:1052A00003461B090133B4FBF3F4FFF734FA03465A
:1052B0005B0F0133B4FBF3F37B617B6918461C374A
:1052C000BD4690BDB4CF00080024F4000048E801BA
:1052D00098B500AFFFF75CFF0446FFF7B5F903464A
:1052E0001B0903F00F03034A52F82330B4FBF3F316
:1052F000184698BD54CF000898B500AFFFF7E8FFF7
:105300000446FFF7B9F903461B0A034A52F8233053
:1053100024FA03F3184698BD94CF000898B500AF5F
:10532000FFF7D6FF0446FFF7B2F90346DB0A034A4C
:1053300052F8233024FA03F3184698BD94CF00089E
:1053400090B585B000AF78607B681B0903F00F0350
:10535000104A52F82330FB60FFF781F903461B091E
:1053600003F00F030C4A52F82330FA68B2FBF3F350
:10537000BB60BB68094AA2FB03239C0CFEF780FFBD
:1053800003461946204600F00BF80346184614372A
:10539000BD4690BDB4CF000854CF000883DE1B4348
:1053A00080B58EB000AF786039603A4A07F12003CB
:1053B00092E80300186004331980374A07F1180394
:1053C00092E80300186004331980344A07F10C0393
:1053D00007CA83E8070000237B633B68B3F5007FBF
:1053E0001BD100233B6314E03B6B5B0038333B4431
:1053F00033F8183C1A467B68934207D83B6B9B00F6
:1054000038333B4453F82C3C7B6321E03B6B013346
:105410003B633B6B022BE7D91AE00023FB6214E0ED
:10542000FB6A5B0038333B4433F8203C1A467B6808
:10543000934207D8FB6A9B0038333B4453F82C3C1B
:105440007B6305E0FB6A0133FB62FB6A022BE7D951
:10545000134B1B6823F0070211497B6B13430B604E
:10546000FDF7D0FBB86208E0FDF7CCFB0246BB6A53
:10547000D31A022B01D9032307E0094B1B6803F061
:1054800007037A6B9A42EFD1002318463837BD469E
:1054900080BD00BF14CF00081CCF000824CF000837
:1054A0000040005880B400AF4FF0B043D3F89030C4
:1054B00003F00203022B01D1012300E00023184670
:1054C000BD4680BC704780B483B000AF78604FF0B9
:1054D000B043D3F888207B681B0CDB431A407B6801
:1054E0009BB24FF0B0411343C1F8883000BF0C3776
:1054F000BD4680BC704780B483B000AF78604FF089
:10550000B043D3F8883023F440724FF0B0417B6849
:105510001343C1F8883000BF0C37BD4680BC7047CC
:1055200080B483B000AF78604FF0B043D3F88830D8
:1055300023F440624FF0B0417B681343C1F88830D8
:1055400000BF0C37BD4680BC704780B483B000AF4D
:1055500078604FF0B043D3F888207B681B0903F4D0
:105560007F23DB431A407B681B0103F47F234FF04A
:10557000B0411343C1F8883000BF0C37BD4680BC32
:10558000704780B483B000AF78604FF0B043D3F879
:1055900088207B681B0C1B04DB431A407B681B04C0
:1055A0004FF0B0411343C1F8883000BF0C37BD46FF
:1055B00080BC704780B483B000AF78604FF0B043D8
:1055C000D3F8883023F040424FF0B0417B6813435A
:1055D000C1F8883000BF0C37BD4680BC704780B42E
:1055E00083B000AF78604FF0B043D3F8883023F039
:1055F00040524FF0B0417B681343C1F8883000BF80
:105600000C37BD4680BC704780B483B000AF786073
:105610004FF0B043D3F8903023F440724FF0B041D4
:105620007B681343C1F8903000BF0C37BD4680BC87
:10563000704780B400AF4FF0B043D3F8903003F41C
:1056400040731846BD4680BC704780B400AF4FF031
:10565000B043D3F890304FF0B04243F48033C2F8F7
:10566000903000BFBD4680BC704780B400AF4FF0A3
:10567000B043D3F890304FF0B04223F48033C2F8F7
:10568000903000BFBD4680BC7047000080B586B03A
:1056900000AF786000237B610023FB740023BB74A0
:1056A0007B681B6803F48033002B58D0FEF7DAFDCB
:1056B000FDF7A8FAF86009E0FDF7A4FA0246FB68D6
:1056C000D31A022B02D90323FB7406E07B4B1B6821
:1056D00003F48073B3F5807FEED1FB7C002B3CD1CB
:1056E000FFF7A7FF02467B685B6B9A420FD04FF033
:1056F000B043D3F8903023F440737B61FFF7A5FFEC
:10570000FFF7B3FF4FF0B0427B69C2F890307B697E
:1057100003F00203002B14D0FDF774FAF8600BE0DD
:10572000FDF770FA0246FB68D31A41F288329342C1
:1057300002D90323FB7404E0FFF7B4FE0346012BF8
:10574000EED1FB7C002B05D17B685B6B1846FFF725
:105750005BFF04E0FB7CBB7401E0FB7CBB747B68FB
:105760001B6803F00103002B04D07B685B681846BC
:10577000FFF7A9FE7B681B6803F00203002B04D02F
:105780007B689B681846FFF79EFE7B681B6803F0EA
:105790002003002B04D07B681B691846FFF7C0FE6E
:1057A0007B681B6803F40073002B04D07B681B6AC2
:1057B0001846FFF7E6FE7B681B6803F48063002B46
:1057C00004D07B685B6A1846FFF7DBFE7B681B68CA
:1057D00003F40063002B04D07B689B6A1846FFF734
:1057E000D0FE7B681B6803F04003002B04D07B686D
:1057F0005B691846FFF7A9FE7B681B6803F080030E
:10580000002B04D07B689B691846FFF79EFE7B68DF
:105810001B6803F48073002B04D07B68DB69184697
:10582000FFF793FE7B681B6803F01003002B11D079
:105830007B68DB681846FFF75EFE7B68DB68B3F5C4
:10584000807F07D14FF0B043DB684FF0B04243F0A8
:105850008073D3607B681B6803F40043002B10D077
:105860007B681B6B1846FFF7A5FE7B681B6B002B44
:1058700007D14FF0B043DB684FF0B04243F0807384
:10588000D3607B681B6803F48043002B11D07B68D6
:10589000DB6A1846FFF7A3FE7B68DB6AB3F1005FA3
:1058A00007D14FF0B043DB684FF0B04243F4803390
:1058B000D360BB7C18461837BD4680BD0004005835
:1058C00080B483B000AF7860064B9B6823F400621D
:1058D00004497B6813438B6000BF0C37BD4680BC16
:1058E000704700BF0004005880B400AF054BD3F8E8
:1058F0009030044A43F40043C2F8903000BFBD46E4
:1059000080BC70470004005880B400AF054BD3F84A
:105910009030044A23F40043C2F8903000BFBD46E3
:1059200080BC70470004005880B400AF034B4FF4B4
:1059300000629A6100BFBD4680BC704700040058F9
:1059400080B400AF064B5B6903F00203022B01D168
:10595000012300E000231846BD4680BC704700BF0D
:105960000004005880B400AF064B5B6903F00403E9
:10597000042B01D1012300E000231846BD4680BC62
:10598000704700BF0004005880B400AF4FF0B04330
:10599000D3F894304FF0B04223F40043C2F894306F
:1059A00000BFBD4680BC704780B400AF4FF0B0432D
:1059B000D3F8943003F48043B3F5804F01D1012331
:1059C00000E000231846BD4680BC704780B483B019
:1059D00000AF7860064BD3F8902005497B681343ED
:1059E000C1F8903000BF0C37BD4680BC704700BF87
:1059F0000008005880B584B000AF78607B68002B49
:105A000003D10123FB73FB7B52E00023FB737B6814
:105A10009B79BB73BB7B002B02D0BB7B032B09D1D3
:105A20007B6800225A717868FDF7D2F84FF48050F5
:105A3000FFF7CCFFBB7B002B26D17B6802229A713B
:105A4000FFF7A2FF1C4B1A681346DB009B1A9B0052
:105A5000DB0C642202FB03F3BB60BB68002B05D1A7
:105A60000123FB737B6801229A6007E0BB68013B5E
:105A7000BB60FFF799FF0346002BEED1FFF734FF21
:105A80004FF40060FFF71CFFFFF74EFFFB7B002B7E
:105A90000AD17B681B68184600F0ACFA7B680122CB
:105AA0001A717B6800229A607B6801229A71FB7BE5
:105AB00018461037BD4680BD0C00002080B586B06A
:105AC00000AFF8607A601A460B467B8113463B8133
:105AD000FB689B79DBB2012B4AD1FB685B79012B18
