:020000040800F2
:100000000000012079320008B1270008B727000856
:10001000BD270008C3270008C9270008000000000A
:10002000000000000000000000000000CF270008D2
:10003000DB27000800000000E7270008F32700087E
:10004000C9320008C9320008C9320008C9320008A4
:10005000C9320008C9320008C9320008C932000894
:10006000C9320008C9320008C93200080128000856
:1000700015280008292800083D28000851280008F4
:1000800065280008C9320008C9320008C9320008D2
:10009000C9320008C9320008C9320008C932000854
:1000A000C9320008C9320008C9320008C932000844
:1000B000C9320008C9320008C9320008C932000834
:1000C000C9320008C9320008C9320008C932000824
:1000D000792800088D280008A1280008C9320008E6
:1000E000C9320008C9320008C9320008C932000804
:1000F000C9320008C9320008C9320008C9320008F4
:10010000C9320008C9320008B5280008C932000801
:10011000C9320008C9320008C9320008C9320008D3
:10012000C9320008C9320008C9320008C9320008C3
:08013000C9320008C9320008C1
:1001400010B5054C237833B9044B13B10448AFF311
:1001500000800123237010BD680000200000000013
:1001600058C3000808B5034B1BB103490348AFF35C
:10017000008008BD000000006C00002058C300088B
:1001800001F0FF01102A2BDB10F0070F08D010F848
:10019000013B013A8B422DD010F0070F42B3F6D14C
:1001A000F0B441EA012141EA014122F007047FF065
:1001B00000070023F0E80256083C85EA010586EABC
:1001C000010685FA47F5A3FA87F586FA47F6A5FAF8
:1001D00087F68EB9EED1F0BC01F0FF0102F0070204
:1001E00032B110F8013B013A83EA010313B1F8D1AF
:1001F0000020704701387047002D06BF3546033890
:10020000073815F0010F07D1013015F4807F02BFC8
:10021000013015F4C03F0130F0BC0138704700BF19
:1002200053B94AB9002908BF00281CBF4FF0FF315D
:100230004FF0FF3000F070B9ADF1080C6DE904CE5D
:1002400000F006F8DDF804E0DDE9022304B07047B1
:100250002DE9F047089E0D4604460F46002B4AD173
:100260008A42944665D9B2FA82F343B102FA03FC9A
:10027000C3F120029F4020FA02F217439C404FEA4C
:100280001C4E1FFA8CF5B7FBFEF1220C0EFB11770A
:1002900042EA074201FB05F090420AD91CEB020238
:1002A00001F1FF3780F01B81904240F21881023942
:1002B0006244121AA4B2B2FBFEF00EFB102244EA12
:1002C000024400FB05F5A5420AD91CEB040400F129
:1002D000FF3280F00681A54240F203816444023877
:1002E00040EA0140641B00211EB1DC400023C6E946
:1002F0000043BDE8F0878B4208D9002E00F0EC8067
:100300000021C6E900050846BDE8F087B3FA83F18D
:10031000002949D1AB4202D3824200F2F780841A0D
:1003200065EB030201201746002EE2D0C6E9004724
:10033000DFE702B9FFDEB2FA82F3002B40F08F80D4
:100340008A1A4FEA1C471FFA8CFE0121B2FBF7F50F
:1003500007FB1520220C42EA00420EFB05F09042FA
:1003600008D91CEB020205F1FF3802D2904200F2DC
:10037000CA804546121AA4B2B2FBF7F007FB10225E
:1003800044EA02440EFB00FEA64508D91CEB040417
:1003900000F1FF3202D2A64500F2BA801046A4EB6B
:1003A0000E0440EA05409FE7C1F120078B4022FA86
:1003B00007FC4CEA030C05FA01F420FA07F3FD40B0
:1003C000234300FA01F94FEA1C401FFA8CFEB5FBEB
:1003D000F0F81C0C00FB185544EA054408FB0EF528
:1003E000A54202FA01F20BD91CEB040408F1FF3A12
:1003F00080F08780A54240F28480A8F1020864441E
:10040000641B9DB2B4FBF0F300FB134445EA0444C3
:1004100003FB0EFEA64508D91CEB040403F1FF30D4
:100420006BD2A64569D9023B644443EA0840A0FB6D
:100430000283A4EB0E049C42C6461D4655D352D0FF
:1004400056B1B9EB0E0364EB050404FA07F7CB4091
:10045000CC401F43C6E900740021BDE8F087C3F11A
:10046000200102FA03FC20FA01F225FA01F19D4075
:100470002A434FEA1C471FFA8CFEB1FBF7F007FB3B
:100480001015110C41EA054100FB0EF58D4204FAEE
:1004900003F408D91CEB010100F1FF382FD28D4283
:1004A0002DD902386144491B92B2B1FBF7F507FB25
:1004B000151142EA014205FB0EF1914208D91CEBED
:1004C000020205F1FF3816D2914214D9023D62446E
:1004D000521A45EA004139E73146304609E73946C4
:1004E000E7E61046FCE6C145AAD2B8EB020E63EB84
:1004F0000C050138A4E74546EAE7034695E7404680
:10050000D1E7D0467CE7023D624433E708460BE77B
:100510006444023843E700BF704700BF80B487B02F
:1005200000AF78607B685A78144B1A7001237B61A6
:1005300003233B617B6802331B78BB600023FB60B5
:1005400011E03B697A68134419780C4A7B691344BB
:100550000A461A707B6901337B613B6901333B6159
:10056000FB680133FB60FA68BB689A42E9DB00BFB5
:1005700000BF1C37BD4680BC704700BFB4010020DF
:1005800080B586B000AF78600B46FB700023FB811E
:10059000FB781946786800F07DF90346FB81224B11
:1005A0007E221A7001237B6100233B610EE03B69D0
:1005B0007A68134419781C4A7B6913440A461A70F6
:1005C0007B6901337B613B6901333B61FB783A69AD
:1005D0009A42ECDBFB891B0A9BB2D9B2124A7B69B7
:1005E00013440A461A707B6901337B61FB89D9B2D7
:1005F0000D4A7B6913440A461A707B6901337B619B
:10060000094A7B6913447E221A709622002107480A
:100610000BF020FA9622002105480BF01BFA00BFD0
:100620001837BD4680BD00BF740300208400002041
:100630001C01002080B586B000AF78600B46FB70CF
:100640007868FFF76BFF3A4B72221A70384B9C2286
:100650005A70374B64229A70354BA622DA70344BAD
:1006600064221A71324B40225A71314BE0229A7146
:100670002F4B7222DA712E4B9C221A722C4B642261
:100680005A722B4BA6229A72294B6422DA72284B9B
:1006900040221A73264B61225A73254B03229A7308
:1006A000234BF022DA7310237B6100233B610EE0C1
:1006B000204A3B69134419781D4A7B6913440A4652
:1006C0001A707B6901337B613B6901333B61FB78C5
:1006D0003A699A42ECDB7969174800F04FF81748FD
:1006E00000F04CF80023FB600AE0114AFB68134459
:1006F0001B781946124800F041F8FB680133FB6093
:10070000FA687B699A42F0DB0C4800F037F87A69A6
:100710000C49074800F0FDF8B860BB68DBB2194629
:100720000848FFF72DFF00BF1837BD4680BD00BF4A
:1007300084000020B401002070C3000888C30008B2
:100740008CC300081C01002080B485B000AF786025
:10075000094B1B6800225A6202E0FB680133FB6010
:10076000054B1B685B6A7A689A42F6D800BF00BFE7
:100770001437BD4680BC7047E00400200FB480B53C
:1007800082B000AF07F114033B603B683A69642113
:100790000A480BF051F9094800F014F878607B68BA
:1007A0009AB24FF47A730549054805F018FF00BF67
:1007B0000837BD46BDE8804004B0704718020020ED
:1007C000C405002080B485B000AF78600023FB60D2
:1007D00002E0FB680133FB607B685A1C7A601B787F
:1007E000002BF6D1FB6818461437BD4680BC704715
:1007F00080B485B000AF78604FF0B0439A6C4FF092
:10080000B0417B6813438B644FF0B0439A6C7B68B4
:100810001340FB60FB6800BF1437BD4680BC7047C7
:1008200080B500AF0420FFF7E3FF0120FFF7E0FFF2
:10083000002200210B2002F08CFE0B2002F0A3FE10
:10084000002200210C2002F084FE0C2002F09BFE0E
:10085000002200210D2002F07CFE0D2002F093FE0C
:10086000002200210E2002F074FE0E2002F08BFE0A
:10087000002200210F2002F06CFE0F2002F083FE08
:1008800000220021102002F064FE102002F07BFE06
:1008900000BF80BD80B487B000AF786039604FF68C
:1008A000FF73FB8241F221037B8100233B6126E041
:1008B0007A683B6913441B781B021AB2B7F91630E9
:1008C00053401BB2FB820023FB6012E0B7F91630E5
:1008D000002B08DAFB8A5B001AB2B7F90A305340E2
:1008E0001BB2FB8202E0FB8A5B00FB82FB680133E8
:1008F000FB60FB68072BE9DD3B6901333B613A692B
:100900003B689A42D4D3FB8A18461C37BD4680BC4C
:10091000704780B48FB000AFF860B9607A60002390
:100920007B6300233B63002387F82F300723BB62E0
:1009300000237B6200233B620023FB6178E00723F6
:10094000BB616FE0FB69FA6813441B781A46BB6908
:1009500042FA03F303F001037B617A69BB6A02FA8E
:1009600003F35AB297F92F3013435BB287F82F3055
:10097000BB6A013BBB627B69002B2FD03B6B013311
:100980003B633B6B052B2BD1BB6A002B10DA7B6BD7
:100990005A1C7A631A46BB68134497F82F201A70C2
:1009A0007B6A01337B62002387F82F300723BB6209
:1009B0000122BB6A02FA03F35BB2DB435AB297F936
:1009C0002F3013405BB287F82F30BB6A013BBB620C
:1009D0003B6A01333B6200233B6301E000233B633E
:1009E000BB6A002B10DA7B6B5A1C7A631A46BB6811
:1009F000134497F82F201A707B6A01337B6200231F
:100A000087F82F300723BB623B6A082B07DDBB6AE0
:100A1000002B04DB7B6A01337B6200233B62BB69F2
:100A2000013BBB61BB69002B8CDAFB690133FB61C5
:100A3000FA697B689A4282DBBB6A062B0BDC7B6B14
:100A40005A1C7A631A46BB68134497F82F201A7011
:100A50007B6A01337B627B6B18463C37BD4680BCAA
:100A6000704780B48DB000AFF860B9607A60002341
:100A7000FB620023BB62002387F8273007233B6219
:100A80000023FB6152E00723BB6149E0FB69FA6880
:100A900013441B781A46BB6942FA03F303F00103BF
:100AA0007B617B69002B11D0BB6A0133BB627A6921
:100AB0003B6A02FA03F35AB297F9273013435BB249
:100AC00087F827303B6A013B3B6215E0BB6A052B88
:100AD00002D10023BB6220E00023BB627A693B6A3B
:100AE00002FA03F35AB297F9273013435BB287F83F
:100AF00027303B6A013B3B623B6A002B0DDAFB6A05
:100B00005A1CFA621A46BB68134497F827201A70D9
:100B1000002387F8273007233B62BB69013BBB6199
:100B2000BB69002BB2DAFB690133FB61FA697B68B0
:100B30009A42A8DB3B6A062B08DCFB6A5A1CFA6265
:100B40001A46BB68134497F827201A70FB6A1846A8
:100B50003437BD4680BC704780B485B000AF786044
:100B60000023FB737B6801331B78B22B1ED0B22BA2
:100B70002EDCB12B17D0B12B2ADC0D2B10DC0A2B6D
:100B800026DB0A3B032B23D801A252F823F000BF37
:100B9000B90B0008BF0B0008C50B0008CB0B000801
:100BA000AC2B06D014E00123FB7313E00123FB738D
:100BB00010E00123FB730DE00123FB730AE0012326
:100BC000FB7307E00123FB7304E00123FB7301E0E7
:100BD0000023FB73FB7B18461437BD4680BC70476F
:100BE00080B485B000AF78604FF0B043DA6C4FF05E
:100BF000B0417B681343CB644FF0B043DA6C7B6841
:100C00001340FB60FB6800BF1437BD4680BC7047D3
:100C100080B586B000AF3B1D00221A605A609A6012
:100C2000DA601A610120FFF7DBFF0220FFF7D8FF2F
:100C30000420FFF7D5FF00224FF40A411F4803F0BC
:100C40009FF9002238211E4803F09AF94FF40A4315
:100C50007B600123BB600023FB6002233B613B1DE3
:100C60001946164803F02CF838237B600123BB603B
:100C70000023FB6003233B613B1D1946104803F032
:100C80001FF803237B604FF40413BB600123FB6058
:100C90003B1D19464FF0904003F012F840237B6053
:100CA0004FF40413BB600123FB603B1D194604484D
:100CB00003F006F800BF1837BD4680BD00040048A9
:100CC0000008004880B487B000AF78603960002326
:100CD0007B6100233B610023FB600023BB6013E0CA
:100CE000BB687A6813441B787E2B0AD17B69002B82
:100CF00004D101237B61BB683B6102E0BB68FB6000
:100D000006E0BB680133BB60BA683B689A42E7DB28
:100D1000FA683B699A4204DDFA683B69D31A0133E9
:100D200001E04FF0FF3318461C37BD4680BC7047CA
:100D300080B582B000AF0346FB71114B00221A70E0
:100D40000F4AFB7913720E4B08225A800C4B042277
:100D50001A710B4B18225A71094B00229A71084BD9
:100D60000022DA71064BF2225A72054B01229A7266
:100D7000034809F049FE00BF0837BD4680BD00BFEB
:100D80007C02002080B582B000AF786039600B4BE8
:100D900000221A70094B0D225A73084A7B6853606F
:100DA000064A3B689360054B0B221A73034809F00F
:100DB00059FD00BF0837BD4680BD00BF900200202E
:100DC00080B584B000AF78600B46FB700021002036
:100DD00009F0B8FEFB781946786809F099F80F4ACF
:100DE00007F1080392E8030083E8030007F1080312
:100DF000184609F0D2F840F2FF1009F01DF901235E
:100E000001220021072009F075FB02220E2101209A
:100E100009F05AFC00BF1037BD4680BD94C30008DE
:100E200080B588B000AF78607B68984A934208D05C
:100E30007B68974A934204D07B68964A934240F07D
:100E40001782954B1B68002B00F012820023FB7267
:100E5000924B1B78FA7A9A4203D0904B1B78532B13
:100E600011D00023FB610BE0FB6901338B4AD15C9D
:100E70008A4AFB6913440A461A70FB690133FB6115
:100E8000FB69542BF0D98548FFF766FE0346844A78
:100E90001360834B1B68002B00F09D81814B1B6806
:100EA000012B40F03D81804B1B68002B40F03881C6
:100EB0007E4B1B68012B40F033817D4B00221A6072
:100EC000764B1B78532B40F0A180744B93F8533032
:100ED0007E2B40F09B807748FFF750FC6F4B9A7851
:100EE000754B1A706D4B5A78744B1A70744B012203
:100EF0001A60714B1B7819466848FFF79BFB9621D7
:100F00007048FFF7DFFE03466F4A13600023BB61A2
:100F10000BE06C4ABB69134419786C4ABB691344F3
:100F20000A461A70BB690133BB61674B1B68BA691B
:100F30009A42EEDB604B1B781A46002157480AF0B4
:100F400089FD962200215F480AF084FD6048FFF782
:100F5000FBFB5D4B1B68DBB21846FFF7E9FE40F672
:100F6000B8314FF49660FFF70DFF574B1B68DBB2AB
:100F700019465648FFF724FF5648FFF7FFFB56492E
:100F80005648FFF7FBFB564B5B6819465548FFF781
:100F9000F5FB534B9B6819465348FFF7EFFB504B4B
:100FA0005B7B19465148FFF7E9FB514B1B7819460B
:100FB0005048FFF7E3FB4E4B1B7A19464E48FFF7AC
:100FC000DDFB4B4B5B8819464C48FFF7D7FB484B82
:100FD0001B7919464A48FFF7D1FB454BDB79194687
:100FE0004848FFF7CBFB4848FFF7C8FB3A4809F0F1
:100FF000FFFA0121012009F043FF334B1B68DBB2EC
:1010000000221946314808F0B5FF20E13F48FFF7BC
:10101000B5FB3F4B1B789AB24FF4FA631F491B484C
:1010200005F0DDFA0346002B0CD0394B1B789AB241
:101030004FF4FA631949164805F0D1FA0346002B1C
:1010400040F0058155213348FFF798FB00237B6171
:101050000AE0124A7B6913441B7819462E48FFF7B1
:101060008DFB7B6901337B617B69542BF1D92B4864
:10107000FFF784FB5522002108480AF0EBFC0C4BDB
:1010800000221A600E4B00221A60E0E05806002091
:1010900030050020C4050020A8040020180300200B
:1010A000BC040020AC04002004000020B804002090
:1010B000700300209CC3000816030020B004002029
:1010C000B404002074030020A40400200C040020B9
:1010D00020A10700CCC3000818D0111AF8C30008DB
:1010E0009002002020C4000830C400084CC400084E
:1010F0007C02002068C400087CC4000894C4000876
:10110000ACC40008C4C40008D8C4000804C5000862
:101110000100002038C5000878C5000880C5000817
:10112000554B1B78532B1AD1534B93F853307E2BCE
:1011300015D1514B9A78514B1A704F4B5A78504BEE
:101140001A704F4B1B78B12B05D14E4B02221A60FF
:101150004D4B02221A604D4B01221A6078E04C4838
:10116000FFF70CFB4B4B1B789AB24FF4FA634249E2
:10117000494805F034FA0346002B0BD0454B1B7849
:101180009AB24FF4FA633C49444805F028FA034602
:10119000002B5DD155214248FFF7F0FA00233B6157
:1011A0000AE0354A3B6913441B7819463D48FFF76E
:1011B000E5FA3B6901333B613B69542BF1D93A486D
:1011C000FFF7DCFA552200212B480AF043FC2F4B95
:1011D00000221A603CE03548FFF7D0FA2D4B1B780F
:1011E0009AB24FF47A7324492B4805F0F8F9034674
:1011F000002B0BD0274B1B789AB24FF47A731E4901
:10120000264805F0ECF90346002B21D1552124484E
:10121000FFF7B4FA0023FB600AE0174AFB681344A7
:101220001B7819461F48FFF7A9FAFB680133FB60DA
:10123000FB68542BF1D91C48FFF7A0FA5522002176
:101240000D480AF007FC114B00221A6000E000BFB5
:10125000104B1B789BB21A4607490F4805F00AFB52
:101260000C4B1B789BB21A4603490C4805F002FB55
:1012700000BF2037BD4680BD1803002016030020A4
:10128000B0040020040000200800002070030020AB
:1012900084C5000801000020580600203005002009
:1012A000B0C5000878C5000880C50008E8C500087A
:1012B0002DE9F04FB1B002AF02F008F800F092FE55
:1012C000FFF7A6FCFFF7ACFA01F084FD01F0EAFCA1
:1012D00001F034FD0AF013F801F0AEFB9D4804F074
:1012E000A7FE9D48FFF74AFA9C48FFF747FA9C483B
:1012F000FFF744FA9B4A9C499C48FFF73FFA9C48F9
:10130000FFF73CFA0E23009301230022072199489E
:10131000FFF734FA9848FFF731FA01E001F04CF991
:10132000964B1B68002BF9D0954808F09FFD0023D1
:10133000002240F20F2140F20F2009F0FDF8914BFE
:101340001B781846FFF7F4FC40F6B8314FF496606E
:10135000FFF718FD8B4B1B7819468B48FFF730FDC4
:101360008A48FFF70BFA8A48FFF708FA8948FFF71F
:1013700005FA8948FFF702FA7A498848FFF7FEF92B
:10138000874B5B6819468748FFF7F8F9844B9B68E1
:1013900019468548FFF7F2F9814B5B7B1946834874
:1013A000FFF7ECF9824B1B7819468248FFF7E6F904
:1013B0007F4B1B7A19468048FFF7E0F97C4B5B882E
:1013C00019467E48FFF7DAF9794B1B7919467C48B4
:1013D000FFF7D4F9764BDB7919467A48FFF7CEF957
:1013E0007948FFF7CBF95F4809F002F900210120A5
:1013F00009F046FD6FF07F4008F026FF734B1B7825
:101400009BB21A467249734805F034FA6F4B1B7849
:101410009BB21A466E49704805F02CFA09F077FF26
:101420006E48FFF791F96E4B1B68002B00F0E680C9
:101430006C4B1B7819466648FFF7FCF896216A4802
:10144000FFF740FC0346694A13600023C7F8B43035
:101450000FE0654AD7F8B43013441978644AD7F8D6
:10146000B43013440A461A70D7F8B4300133C7F8C1
:10147000B4305E4B1B68D7F8B4209A42E9DB594B75
:101480001B781A46002152480AF0E4FA96220021FD
:1014900055480AF0DFFA554B1B68DBB21846FFF7D8
:1014A00047FC42F6E0614FF49650FFF76BFC4F4B60
:1014B0001B68DBB219464E48FFF782FC4D48FFF728
:1014C0005DF929494C48FFF759F9354B5B681946D6
:1014D0003448FFF753F9324B9B6819463248FFF7FF
:1014E0004DF92F4B5B7B19463048FFF747F9304BDE
:1014F0001B7819462F48FFF741F92D4B1B7A1946E7
:101500002D48FFF73BF92A4B5B8819462B48FFF71C
:1015100035F9274B1B7919462948FFF72FF9244B3A
:10152000DB7919462748FFF729F92748FFF726F9FD
:101530000D4809F05DF80121012009F0A1FC2B4BB9
:101540001B68DBB200221946294808F013FD00F0A1
:1015500025BD00BFE004002018C6000854C60008DE
:1015600088C600086859F21918D0111AA4C60008D4
:10157000E4C600080CC7000860C70008A8040020E3
:10158000A520000800000020AC0200208CC7000845
:10159000D4C70008F4C7000814C8000840C80008F1
:1015A0009002002020C4000830C400084CC4000889
:1015B0007C02002068C400087CC4000894C40008B1
:1015C000ACC40008C4C40008D8C40008010000204E
:1015D00018030020580600203005002020A1070035
:1015E000700300201603002074030020A4040020D0
:1015F0000C040020CCC30008F8C30008A84B1B68EB
:10160000012B40F0CB846B46BB60A54B00221A60D7
:10161000002387F88B30A34B1B781946A248FFF7AD
:1016200051FB034687F88B3097F88B30043B87F8E3
:101630008A3097F88A201146F9600B46013BC7F8BB
:101640008430CBB20022984691464FF000024FF012
:1016500000034FEAC90343EA58734FEAC802CBB20A
:1016600000229A4693464FF000024FF000034FEAE3
:10167000CB0343EA5A734FEACA020B460733DB082F
:10168000DB00ADEB030D02AB0033C7F88030002365
:10169000C7F8B0300123C7F8AC3015E0824AD7F85C
:1016A000AC3013441978D7F88020D7F8B030134401
:1016B0000A461A70D7F8B0300133C7F8B030D7F8FF
:1016C000AC300133C7F8AC3097F88A30D7F8AC208B
:1016D0009A42E3DD6922002173480AF0BBF997F8CA
:1016E0008A2007F110031946D7F88000FFF7B9F9EF
:1016F000F867FB6F013BFB67FC6F631EBB6722460D
:10170000002315461E464FF000024FF00003F30081
:1017100043EA5573EA00224600233A607B604FF0AB
:1017200000024FF000037968CB00D7E9000184463E
:1017300043EA5C730146CA0023460733DB08DB003B
:10174000ADEB030D02AB00337B670023C7F8A83075
:1017500010E007F11002D7F8A830134419787A6F17
:10176000D7F8A83013440A461A70D7F8A8300133C6
:10177000C7F8A830D7F8A820FB6F9A42E9DB4B4B9B
:101780001B68012B40F035817B6F9B7CDF2B07D1E1
:101790007B6FDB7CAB2B03D17B6F1B7DD12B0BD005
:1017A0007B6F9B7C532B2AD17B6FDB7C022B26D15A
:1017B0007B6F1B7D532B22D13D48FEF7DFFF3D4B56
:1017C00053221A703B4BAC225A703A4B04229A7047
:1017D000384B0222DA70374BFC221A71354BEE225D
:1017E0005A71344B9A78344B1A70344B01221A6078
:1017F00023461A460021786F0AF02CF9CCE37B6F60
:101800009B7CFD2B40F09D807B6FDB7CBA2B40F0F6
:1018100098807B6F1B7DD02B40F09380284B022259
:101820001A60264B00221A60264B00221A60264BB3
:1018300000221A602548FEF7A1FF1E4B53221A70A2
:101840001C4BAC225A701B4B04229A70194B02227B
:10185000DA70184B00221A71164BDD225A71154BA3
:101860009A78154B1A70F96F1948FEF787FFA2B2E4
:101870004FF4FA63796F174804F0B1FE0346002B6A
:1018800009D0A2B24FF4FA63796F134804F0A7FEAF
:101890000346002B51D00023C7F8A4302CE000BF32
:1018A000C004002000000020AC020020080000203E
:1018B00068C80008180300201603002070030020E9
:1018C00004000020AC040020B40400208CC80008F0
:1018D000ACC8000858060020300500207A6FD7F801
:1018E000A43013441B781946B548FEF747FFD7F8D4
:1018F000A4300133C7F8A430D7F8A420FB6F9A4274
:10190000ECDBB048FEF73AFF23461A460021786F19
:101910000AF0A0F869220021AB480AF09BF8FB68A6
:101920001A460021D7F880000AF094F807F1100356
:101930006422002118460AF08DF8A44B01221A6097
:101940002AE3F96FA248FEF719FFA2B24FF4FA6337
:10195000796FA04804F043FE0346002B0AD0A2B2E0
:101960004FF4FA63796F9C4804F039FE0346002B6C
:1019700000F012830023C7F8A0300DE07A6FD7F88B
:10198000A03013441B7819468D48FEF7F7FED7F8B0
:10199000A0300133C7F8A030D7F8A020FB6F9A42DF
:1019A000ECDB8E4808F024FE0021012009F068FAE3
:1019B0006FF07F4008F048FC23461A460021786FFC
:1019C0000AF048F8692200217F480AF043F8FB68D2
:1019D0001A460021D7F880000AF03CF807F11003FE
:1019E0006422002118460AF035F87D48FEF7C6FE4D
:1019F000D2E27C4B1B68002B40F0CE827A4B1B68F6
:101A0000012B40F024817B6F9B7CFD2B7BD17B6F76
:101A1000DB7CBA2B77D17B6F1B7DD02B73D1734BC3
:101A200002221A60694B00221A606F4B00221A6072
:101A30006F4B00221A606F48FEF7A0FE6E4B5322D8
:101A40001A706D4BAC225A706B4B04229A706A4B21
:101A50000222DA70684B00221A71674BDD225A713C
:101A6000654B9A78654B1A70F96F5948FEF786FEF8
:101A7000A2B24FF4FA63796F564804F0B0FD034602
:101A8000002B09D0A2B24FF4FA63796F524804F0E8
:101A9000A6FD0346002B32D00023C7F89C300DE092
:101AA0007A6FD7F89C3013441B7819464448FEF7E8
:101AB00065FED7F89C300133C7F89C30D7F89C20DE
:101AC000FB6F9A42ECDB3F48FEF758FE23461A466E
:101AD0000021786F09F0BEFF692200213A4809F021
:101AE000B9FFFB681A460021D7F8800009F0B2FF61
:101AF00007F1100364220021184609F0ABFF334BB5
:101B000001221A6048E27B6F9B7C532B7CD17B6F58
:101B1000DB7C022B78D17B6F1B7D532B74D1F96F4B
:101B20003748FEF72BFEA2B24FF4FA63796F2948CB
:101B300004F055FD0346002B0AD0A2B24FF4FA631D
:101B4000796F254804F04BFD0346002B00F02382FB
:101B50000023C7F898300DE07A6FD7F89830134417
:101B60001B7819461648FEF709FED7F8983001335E
:101B7000C7F89830D7F89820FB6F9A42ECDB1148F1
:101B8000FEF7FCFD23461A460021786F09F062FF3C
:101B9000692200210C4809F05DFFFB681A4600210C
:101BA000D7F8800009F056FF07F1100364220021E6
:101BB000184609F04FFF1348FEF7E0FDEBE100BFC8
:101BC00078C5000880C50008AC0200207003002022
:101BD000ACC8000858060020300500206859F219EA
:101BE000D0C8000808000020AC0400200400002039
:101BF000B40400208CC8000818030020160300203D
:101C0000ECC800081CC90008AB48FEF7B7FDAB4B99
:101C100053221A70A94BAC225A70A84B04229A7016
:101C2000A64B0222DA70A54BFC221A71A34BEE22BE
:101C30005A71A24B9A78A24B1A70A24B01221A60D9
:101C400023461A460021786F09F004FFA4E19E4B59
:101C50001B68002B40F0A0817B6F9B7CFD2B7BD110
:101C60007B6FDB7CBA2B77D17B6F1B7DD02B73D145
:101C7000964B02221A60934B00221A60924B00226C
:101C80001A60934B00221A609248FEF777FD8B4B47
:101C900053221A70894BAC225A70884B04229A70D6
:101CA000864B0222DA70854B00221A71834BDD22AB
:101CB0005A71824B9A78824B1A70F96F8648FEF7F8
:101CC0005DFDA2B24FF4FA63796F844804F087FC9B
:101CD0000346002B09D0A2B24FF4FA63796F804813
:101CE00004F07DFC0346002B32D00023C7F894306B
:101CF0000DE07A6FD7F8943013441B781946794871
:101D0000FEF73CFDD7F894300133C7F89430D7F88C
:101D10009420FB6F9A42ECDB7348FEF72FFD2346BD
:101D20001A460021786F09F095FE692200216F485C
:101D300009F090FEFB681A460021D7F8800009F0F0
:101D400089FE07F1100364220021184609F082FE83
:101D50005C4B01221A601FE17B6F9B7CDF2B7BD1E8
:101D60007B6FDB7CAB2B77D17B6F1B7DD12B73D152
:101D7000564B00221A60534B00221A60524B01222C
:101D80001A605B4B01221A605A48FEF7F7FC4B4B76
:101D900053221A70494BAC225A70484B04229A7055
:101DA000464B0222DA70454B01221A71434BDD2269
:101DB0005A71424B9A78424B1A70F96F4648FEF7B7
:101DC000DDFCA2B24FF4FA63796F444804F007FCDB
:101DD0000346002B09D0A2B24FF4FA63796F404852
:101DE00004F0FDFB0346002B32D00023C7F89030EF
:101DF0000DE07A6FD7F8903013441B7819463948B4
:101E0000FEF7BCFCD7F890300133C7F89030D7F814
:101E10009020FB6F9A42ECDB3348FEF7AFFC234681
:101E20001A460021786F09F015FE692200212F481B
:101E300009F010FEFB681A460021D7F8800009F06F
:101E400009FE07F1100364220021184609F002FE82
:101E50001C4B01221A609FE07B6F9B7C532B4BD164
:101E60007B6FDB7C022B47D17B6F1B7D532B43D1D8
:101E70001148FEF783FC114B53221A700F4BAC2212
:101E80005A700E4B04229A700C4B0222DA700B4BE4
:101E9000FC221A71094BEE225A71084B9A78084BB2
:101EA0001A70084B01221A6023461A460021786FE7
:101EB00009F0D0FD70E000BF68C8000818030020DA
:101EC0001603002070030020AC0400200400002052
:101ED000B40400208CC80008ACC8000858060020D4
:101EE0003005002078C5000880C50008AC0200203D
:101EF000B804002044C90008F96F3148FEF73EFCE1
:101F0000A2B24FF4FA63796F2E4804F068FB0346DF
:101F1000002B09D0A2B24FF4FA63796F2A4804F07B
:101F20005EFB0346002B37D00023C7F88C300DE052
:101F30007A6FD7F88C3013441B7819462348FEF784
:101F40001DFCD7F88C300133C7F88C30D7F88C20C3
:101F5000FB6F9A42ECDB1E48FEF710FC23461A4644
:101F60000021786F09F076FD69220021194809F0F7
:101F700071FDFB681A460021D7F8800009F06AFD60
:101F800007F1100364220021184609F063FD12488E
:101F9000FEF7F4FB00E000BFD7F808D00F4B1B782A
:101FA0009BB21A460E49074804F064FC0B4B1B78A1
:101FB0009BB21A460A49044804F05CFCFFF72EBAAB
:101FC000ACC80008580600203005002078C500087D
:101FD00080C50008AC020020D0C800080100002025
:101FE0001803002080B59AB000AF07F12003482203
:101FF0000021184609F02EFD3B1D00221A605A6090
:102000009A60DA601A615A619A61254B1B6823F461
:10201000C063234A43F400731360214B1B6803F42D
:10202000C0633B603B6801233B624FF404137B6257
:102030000023BB620223FB6403233B6510237B6503
:102040000623BB654FF40033FB654FF000537B66FE
:102050004FF000733B6607F12003184602F07AFA4E
:102060000346002B01D000F0A1FA4F237B6003232D
:10207000BB600023FB6000233B6100237B610023E6
:10208000FB613B1D0221184602F0E6FD0346002BD2
:1020900001D000F08BFA00BF6837BD4680BD00BF9D
:1020A000000400582DE9F04F91B000AF0346FB81CA
:1020B000FB89012B40F0C7808B4B00221A608B4BB1
:1020C0001B6819468A48FEF759FB0023FB630AE0A8
:1020D000884AFB6B13441B7819468748FEF74EFB72
:1020E000FB6B0133FB63814B1B68FA6B9A42EFDB9E
:1020F0008248FEF743FB962200217E4809F0AAFCA5
:102100007F4B1B78B12B03D07D4B1B78B22B0CD1AE
:102110007C4B1B68013B7B4A13607B4B1B68013B7C
:10212000794A1360764B00221A70784B1B68002B9B
:102130000ED0744B02221A606B4B00221A60744B53
:1021400000221A60714B00221A60724B00221A6042
:102150006C4B1B68002B09D1634B00221A606C4B3F
:1021600001221A606C48FEF709FB02E0684B00226E
:102170001A606A48FEF7E8FA694B1B781846FEF7C2
:10218000D7FD40F6B8314FF49660FEF7FBFD644B87
:102190001B7819466348FEF713FE6348FEF7EEFA14
:1021A00062496348FEF7EAFA624B5B681946624887
:1021B000FEF7E4FA5F4B9B6819466048FEF7DEFACB
:1021C0005C4B5B7B19465E48FEF7D8FA5D4B1B788B
:1021D00019465D48FEF7D2FA5A4B1B7A19465B48FE
:1021E000FEF7CCFA574B5B8819465948FEF7C6FAFA
:1021F000544B1B7919465748FEF7C0FA514BDB790F
:1022000019465548FEF7BAFA5448FEF7B7FA474858
:1022100008F0EEF90021012008F032FE6FF07F4057
:1022200008F012F84E4B1B789BB21A464D494E48A7
:1022300004F020FB4A4B1B789BB21A4649494B4895
:1022400004F018FB91E1FB89022B40F05B816922CD
:102250003349344807F06CFE08F08BFC0346DAB2D1
:10226000434B1A704348FEF789FA002387F82F3052
:102270002B4B1B7819462B48FEF724FD034687F8A5
:102280002F306B46BB6097F82F603346013BBB6233
:10229000F3B200223B607A604FF000024FF000037F
:1022A0007968CB00D7E90001844643EA5C730146B4
:1022B000CA00F3B200229A4693464FF000024FF054
:1022C00000034FEACB0343EA5A734FEACA0233468C
:1022D0000733DB08DB00ADEB030D6B4600337B629D
:1022E0000023BB635CE000BF70030020A404002057
:1022F00064C900080C04002078C5000880C50008E7
:10230000B00400200400002008000020B4040020D5
:10231000AC040020B80400209CC9000820A10700DC
:1023200000000020AC02002014C800086859F2190F
:1023300040C800089002002020C4000830C40008F3
:102340004CC400087C02002068C400087CC400085B
:1023500094C40008ACC40008C4C40008D8C4000871
:10236000010000201803002058060020300500203E
:1023700015030020D4C900087E4ABB6B13441978AA
:102380007A6ABB6B13440A461A707A6ABB6B1344B1
:102390001B7819467848FEF7F1F9BB6B0133BB6334
:1023A00097F82F30BA6B9A42E6DB7448FEF7E6F9ED
:1023B00097F82F30043B87F8233097F823100B460B
:1023C000013BFB61CBB20022984691464FF00002E0
:1023D0004FF000034FEAC90343EA58734FEAC802BB
:1023E000CBB200221C4615464FF000024FF000030E
:1023F000EB0043EA5473E2000B460733DB08DB00D3
:10240000ADEB030D6B460033BB6100237B630123FF
:102410003B630EE07A6A3B6B13441978BA697B6BB5
:1024200013440A461A707B6B01337B633B6B0133A9
:102430003B6397F823303A6B9A42EBDD4F48FEF747
:102440009DF90023FB8297F823301946B869FEF7FF
:1024500021FA0346FB82FB8A1B0A9BB2DBB23B7468
:10246000FB8ADBB27B7497F82F30033B7A6AD35C2C
:102470007B7597F82F30023B7A6AD35C3B753B7CC7
:102480007A7D9A420DD17B7C3A7D9A4209D13346BE
:102490001A460021786A09F0DDFA394B01221A60E8
:1024A0001EE03848FEF76AF9374B53221A70364B54
:1024B000AC225A70344B04229A70334B0222DA70E9
:1024C000314BCC221A71304BEE225A712E4B9A7836
:1024D0002E4B1A702E4B01221A60294B00221A60D3
:1024E000D7F808D02B4B1B789BB21A4626492A48AE
:1024F00004F0C0F9274B1B789BB21A4622492748A3
:1025000004F0B8F9FB89B3F5007F2ED1244B1B787A
:102510001846FEF70DFC40F6B8314FF49660FEF712
:1025200031FC1F4B1B7819461248FEF749FC1D4829
:10253000FEF724F91C4808F05BF80021012008F0A0
:102540009FFC6FF07F4007F07FFE124B1B789BB221
:102550001A460D49104804F08DF90E4B1B789BB2BA
:102560001A4609490D4804F085F94437BD46BDE8CF
:10257000F08F00BFAC02002078C5000880C50008BD
:10258000C0040020F4C9000818030020160300202E
:1025900070030020010000205806002030050020B4
:1025A0000000002024CA00086859F21980B400AF66
:1025B00072B600BFFEE7000080B586B000AF07220C
:1025C00000216C4809F046FA6B4B00221A7041F664
:1025D000583307226749694804F087F80346002BFF
:1025E0000AD041F6583307226249654804F07DF865
:1025F0000346002B40F0AA806248FEF7BFF8002394
:102600007B610AE05B4A7B6913441B7819465E488C
:10261000FEF7B4F87B6901337B617B69062BF1DD42
:102620005A48FEF7ABF80023FB71524B1B78FA793E
:102630009A4211D100233B610BE03B6901334D4AC3
:10264000D15C4C4A3B6913440A461A703B6901331A
:102650003B613B69062BF0D9464B1B78532B3AD193
:10266000444B5B797E2B36D14948FEF787F84FF40F
:10267000FA6307223F49414803F0B1FF0346002BAC
:1026800009D04FF4FA6307223A493D4803F0A7FF07
:102690000346002B58D13F48FEF770F80023FB603B
:1026A0000AE0344AFB6813441B7819463648FEF7A3
:1026B00065F8FB680133FB60FB68062BF1DD3348EE
:1026C000FEF75CF82C4B01221A70072200212948E2
:1026D00009F0C0F938E03048FEF750F84FF4FA63DB
:1026E00007222449254803F07AFF0346002B09D02E
:1026F00041F6583307221F49214803F070FF034673
:10270000002B31D12548FEF739F80023BB600AE0E1
:10271000184ABB6813441B7819461B48FEF72EF86D
:10272000BB680133BB60BB68062BF1DD1748FEF7C1
:1027300025F8072200210F4809F08CF90E4B0022E2
:102740001A70FFF739FF0FE000BF0DE00A4B0022BF
:102750001A701348FEF712F807220021054809F005
:1027600079F9FFF729FF00E000BF00BF1837BD4629
:1027700080BD00BFC4040020A8040020580600202B
:10278000300500204CCA00087CCA000884CA000832
:1027900088CA0008B0CA0008DCCA000808CB0008D4
:1027A00038CB000880B400AF00BFBD4680BC704786
:1027B00080B400AFFEE780B400AFFEE780B400AFA6
:1027C000FEE780B400AFFEE780B400AFFEE780B460
:1027D00000AF00BFBD4680BC704780B400AF00BFF3
:1027E000BD4680BC704780B400AF00BFBD4680BC12
:1027F000704780B500AF00F0C3FD00BF80BD000092
:1028000080B500AF024801F0BDF800BF80BD00BF39
:10281000EC06002080B500AF024801F0B3F800BF1D
:1028200080BD00BF4C07002080B500AF024801F01A
:10283000A9F800BF80BD00BFAC07002080B500AF85
:10284000024801F09FF800BF80BD00BF0C080020C7
:1028500080B500AF024801F095F800BF80BD00BF11
:102860006C08002080B500AF024801F08BF800BF73
:1028700080BD00BFCC08002080B500AF024804F046
:1028800045F800BF80BD00BFC405002080B500AF83
:10289000024804F03BF800BF80BD00BF580600208E
:1028A00080B500AF024804F031F800BF80BD00BF22
:1028B0003005002080B500AF024803F0C3F900BF27
:1028C00080BD00BFCC04002080B485B000AF78602C
:1028D0004FF0B0435A6E4FF0B0417B6813434B66E4
:1028E0004FF0B0435A6E7B681340FB60FB6800BF3B
:1028F0001437BD4680BC704780B500AF064B082238
:102900001A60054802F01CFF0346002B01D0FFF7B8
:102910004DFE00BF80BD00BFCC04002080B582B05A
:1029200000AF78600120FFF7CFFF002200213220A6
:1029300000F00FFE322000F026FE00BF0837BD4633
:1029400080BD80B400AF00BFBD4680BC70470000B2
:1029500080B582B000AF00237B60064B1B78002B54
:1029600002D000F008F978607B6818460837BD4649
:1029700080BD00BFD804002080B582B000AF786071
:102980007B68184600F025F900BF0837BD4680BDBA
:1029900080B586B000AF7860144A154BD31A7B61BE
:1029A0007B693B61134B1B68002B02D1114B124A10
:1029B0001A60104B1A687B6813443A699A4207D22E
:1029C00009F050F803460C221A604FF0FF3309E07B
:1029D000084B1B68FB60074B1A687B681344054A69
:1029E0001360FB6818461837BD4680BD0000012003
:1029F00000040000DC040020380C002080B400AF8C
:102A000000BFBD4680BC704780B485B000AF786021
:102A10004FF0B0439A6D4FF0B0417B6813438B6524
:102A20004FF0B0439A6D7B681340FB60FB6800BFBA
:102A30001437BD4680BC704780B588B000AF07F141
:102A4000100300221A605A609A60DA603B1D00226F
:102A50001A605A609A601D4B4FF080421A601B4BFF
:102A60002F225A60194B00229A60184B184ADA60DC
:102A7000164B00221A61154B80229A61134803F00D
:102A80007FFA0346002B01D0FFF790FD4FF48053EF
:102A90003B6107F1100319460C4803F00DFB034698
:102AA000002B01D0FFF782FD00237B600023FB6039
:102AB0003B1D1946054803F0C3FC0346002B01D01B
:102AC000FFF774FD00BF2037BD4680BDE004002045
:102AD00040420F0080B582B000AF78607B681B6811
:102AE000B3F1804F02D10120FFF78EFF00BF0837FE
:102AF000BD4680BD80B483B000AF0023FB71FB797D
:102B000018460C37BD4680BC704780B485B000AF16
:102B100078600023FB73FB7B18461437BD4680BCEE
:102B2000704780B483B000AF0023FB71FB79184677
:102B30000C37BD4680BC704780B400AF024B1B68A9
:102B40001846BD4680BC70472C05002080B400AFFD
:102B5000024B1B681846BD4680BC70472C05002000
:102B600080B483B000AF00237B607B6818460C37CD
:102B7000BD4680BC704780B483B000AF00237B604B
:102B80007B6818460C37BD4680BC704780B483B064
:102B900000AF00237B607B6818460C37BD4680BCC5
:102BA000704780B485B000AF78600023FB60FB689D
:102BB00018461437BD4680BC704780B485B000AF5E
:102BC00078600023FB60FB6818461437BD4680BC64
:102BD000704780B483B000AF786000BF0C37BD464B
:102BE00080BC704780B485B000AF78604FF0B043D0
:102BF000DA6C4FF0B0417B681343CB644FF0B043C5
:102C0000DA6C7B681340FB60FB6800BF1437BD467D
:102C100080BC704780B485B000AF78604FF0B0439F
:102C20009A6D4FF0B0417B6813438B654FF0B04312
:102C30009A6D7B681340FB60FB6800BF1437BD468C
:102C400080BC704780B485B000AF78604FF0B0436F
:102C5000DA6D4FF0B0417B681343CB654FF0B04362
:102C6000DA6D7B681340FB60FB6800BF1437BD461C
:102C700080BC704780B485B000AF78604FF0B0433F
:102C80001A6E4FF0B0417B6813430B664FF0B043B0
:102C90001A6E7B681340FB60FB6800BF1437BD46AB
:102CA00080BC704780B500AF224B234A1A60214B8D
:102CB0004FF4E1325A601F4B00229A601D4B0022F4
:102CC000DA601C4B00221A611A4B0C225A61194B14
:102CD00000229A61174B00221A62164B00225A6298
:102CE000144B00229A62134B00225A66114803F0DB
:102CF00026FC0346002B01D0FFF758FC00210D48AD
:102D000005F04EF80346002B01D0FFF74FFC0021E1
:102D1000084805F083F80346002B01D0FFF746FC76
:102D2000044805F005F80346002B01D0FFF73EFCF0
:102D300000BF80BD300500200080004080B500AF9E
:102D4000224B234A1A60214B4FF4E1325A601F4B49
:102D500000229A601D4B0022DA601C4B00221A618F
:102D60001A4B0C225A61194B00229A61174B002210
:102D7000DA61164B00221A62144B00225A62134B7E
:102D800000229A62114803F0DAFB0346002B01D0BF
:102D9000FFF70CFC00210D4805F002F80346002B5C
:102DA00001D0FFF703FC0021084805F037F803467F
:102DB000002B01D0FFF7FAFB044804F0B9FF0346EB
:102DC000002B01D0FFF7F2FB00BF80BDC40500203F
:102DD0000038014080B500AF224B234A1A60214BD6
:102DE0004FF4E1325A601F4B00229A601D4B0022C3
:102DF000DA601C4B00221A611A4B0C225A61194BE3
:102E000000229A61174B0022DA61164B00221A62E7
:102E1000144B00225A62134B00229A62114803F0AD
:102E20008EFB0346002B01D0FFF7C0FB00210D48AD
:102E300004F0B6FF0346002B01D0FFF7B7FB0021DB
:102E4000084804F0EBFF0346002B01D0FFF7AEFB70
:102E5000044804F06DFF0346002B01D0FFF7A6FBEA
:102E600000BF80BD580600200044004080B596B0E9
:102E700000AF786007F1440300221A605A609A603C
:102E8000DA601A6107F10C0338220021184608F0B5
:102E9000E1FD7B681B68994A934240F092802023B1
:102EA000FB600023FB6107F10C03184602F094FA63
:102EB0000346002B01D0FFF779FB0120FFF7C2FE8C
:102EC0000420FFF78FFE03237B640223BB640023EF
:102ED000FB6400233B6508237B6507F14403194627
:102EE000874800F0EDFE874B874A1A60854B152214
:102EF0005A60844B00229A60824B0022DA60814B38
:102F000080221A617F4B00225A617E4B00229A6117
:102F10007C4B0022DA617B4B00221A62794800F078
:102F20004DFB0346002B01D0FFF740FB10217548F5
:102F300000F0EEFD0346002B01D0FFF737FB7B6866
:102F4000704AC3F880206F4A7B6893626F4B704A67
:102F50001A606E4B16225A606C4B10229A606B4BB3
:102F60000022DA60694B80221A61684B00225A61A4
:102F7000664B00229A61654B0022DA61634B0022A6
:102F80001A62624800F01AFB0346002B01D0FFF7DB
:102F90000DFB10215D4800F0BBFD0346002B01D066
:102FA000FFF704FB7B68594ADA67584A7B689362EB
:102FB00000220021262000F0CCFA262000F0E3FABF
:102FC0004CE17B681B68534A934240F0AD8001237B
:102FD000FB604FF440333B6107F10C03184602F0ED
:102FE000FBF90346002B01D0FFF7E0FA4FF48040D5
:102FF000FFF740FE0120FFF7F5FD4FF4C0637B644F
:103000000223BB640023FB6400233B6507237B652D
:1030100007F1440319464FF0904000F051FE3E4B3B
:103020003E4A1A603C4B11225A603B4B00229A6088
:10303000394B0022DA60384B80221A61364B00226D
:103040005A61354B00229A61334B0022DA61324BD0
:1030500000221A62304800F0B1FA0346002B01D07A
:10306000FFF7A4FA10212C4800F052FD0346002B74
:1030700001D0FFF79BFA7B68274AC3F88020264AD5
:103080007B689362264B274A1A60254B12225A60AE
:10309000234B10229A60224B0022DA60204B8022C0
:1030A0001A611F4B00225A611D4B00229A611C4B72
:1030B0000022DA611A4B00221A62194800F07EFAE7
:1030C0000346002B01D0FFF771FA1021144800F0DD
:1030D0001FFD0346002B01D0FFF768FA7B68104AFA
:1030E000DA670F4A7B68936200220021242000F0F7
:1030F00030FA242000F047FAB0E000BF0080004022
:1031000000080048EC060020080002404C070020A0
:103110001C00024000380140AC0700203000024093
:103120000C080020440002407B681B684D4A934213
:1031300040F094800223FB604FF440237B6107F151
:103140000C03184602F048F90346002B01D0FFF7A4
:103150002DFA4FF40030FFF75DFD0120FFF742FD2F
:103160000C237B640223BB640023FB6400233B65C8
:1031700007237B6507F1440319464FF0904000F0A8
:103180009FFD394B394A1A60374B13225A60364B30
:1031900000229A60344B0022DA60334B80221A619D
:1031A000314B00225A61304B00229A612E4B002293
:1031B000DA612D4B00221A622B4800F0FFF903461A
:1031C000002B01D0FFF7F2F91021274800F0A0FCF6
:1031D0000346002B01D0FFF7E9F97B68224AC3F8C8
:1031E0008020214A7B689362214B224A1A60204B3F
:1031F00014225A601E4B10229A601D4B0022DA6086
:103200001B4B80221A611A4B00225A61184B002274
:103210009A61174B0022DA61154B00221A6214489A
:1032200000F0CCF90346002B01D0FFF7BFF91021C5
:103230000F4800F06DFC0346002B01D0FFF7B6F9F4
:103240007B680B4ADA670A4A7B6893620022002196
:10325000252000F07EF9252000F095F900BF5837B1
:10326000BD4680BD004400406C080020580002406C
:10327000CC0800206C0002400D488546FFF7BEFBDD
:103280000C480D490D4A002302E0D458C4500433C1
:10329000C4188C42F9D30A4A0A4C002301E0136097
:1032A0000432A242FBD308F0E3FBFEF701F8FEE78D
:1032B00000000120000000206800002024CE00084B
:1032C00068000020380C0020FEE7000080B582B0C6
:1032D00000AF0023FB71032000F030F901F09EFEE7
:1032E0000346094A1360002000F010F80346002B43
:1032F00002D00123FB7101E0FFF754FAFB79184675
:103300000837BD4680BD00BF0C00002080B584B0EA
:1033100000AF78600023FB73174B1B78002B24D081
:1033200001F07CFE0246144B1B7819464FF47A7369
:10333000B3FBF1F3B2FBF3F3184600F032F90346A6
:10334000002B0FD17B680F2B09D8002279684FF032
:10335000FF3000F0FEF8094A7B68136007E00123A4
:10336000FB7304E00123FB7301E00123FB73FB7B90
:1033700018461037BD4680BD140000201000002004
:1033800080B400AF054B1B781A46054B1B681344ED
:10339000034A136000BFBD4680BC70471400002084
:1033A0002C09002080B485B000AF78607B6803F002
:1033B0000703FB600C4BDB68BB60BA684FF6FF038A
:1033C0001340BB60FB681A02BB68134343F0BF6342
:1033D00043F40033BB60044ABB68D36000BF1437BA
:1033E000BD4680BC704700BF00ED00E080B400AF78
:1033F000044BDB681B0A03F007031846BD4680BC7C
:10340000704700BF00ED00E080B483B000AF03461A
:10341000FB7197F90730002B0BDBFB7903F01F02E0
:10342000064997F907305B09012000FA02F241F8DA
:10343000232000BF0C37BD4680BC704700E100E090
:1034400080B483B000AF03463960FB7197F9073051
:10345000002B0ADB3B68DAB20C4997F907301201FE
:10346000D2B20B4483F800230AE03B68DAB2084981
:10347000FB7903F00F03043B1201D2B20B441A761E
:1034800000BF0C37BD4680BC704700BF00E100E0C4
:1034900000ED00E080B489B000AFF860B9607A60F8
:1034A000FB6803F00703FB61FB69C3F10703042B0F
:1034B00028BF0423BB61FB690433062B02D9FB69D7
:1034C000033B00E000237B614FF0FF32BB6902FA4F
:1034D00003F3DA43BB681A407B699A404FF0FF312F
:1034E0007B6901FA03F3D9437B680B401343184609
:1034F0002437BD4680BC704780B582B000AF78608D
:103500007B68013BB3F1807F01D301230FE00A4ABE
:103510007B68013B53600F214FF0FF30FFF790FFB6
:10352000054B00229A60044B07221A6000231846BC
:103530000837BD4680BD00BF10E000E080B582B016
:1035400000AF78607868FFF72DFF00BF0837BD46F1
:1035500080BD80B586B000AF0346B9607A60FB736A
:10356000FFF744FF78617A68B9687869FFF792FFDE
:10357000024697F90F3011461846FFF761FF00BF6A
:103580001837BD4680BD80B582B000AF0346FB71E1
:1035900097F907301846FFF737FF00BF0837BD46D9
:1035A00080BD80B582B000AF78607868FFF7A4FF77
:1035B000034618460837BD4680BD000080B582B07E
:1035C00000AF78607B68002B01D101238EE07B681F
:1035D0001B681A46474B9A420FD87B681B681A46ED
:1035E000454B1344454AA2FB03231B099A007B6801
:1035F0005A647B68424A1A640EE07B681B681A466C
:10360000404B13443D4AA2FB03231B099A007B68ED
:103610005A647B683C4A1A647B68022283F825203E
:103620007B681B681B687A68126823F4FF4323F0E9
:10363000700313607B681B6819687B689A687B68F5
:10364000DB681A437B681B691A437B685B691A4312
:103650007B689B691A437B68DB691A437B681B6A3A
:103660001A437B681B680A431A60786800F0BCFA4A
:103670007B689B68B3F5804F02D17B6800225A605B
:103680007B685A687B689B6C02F07F021A607B68DB
:10369000DB6C7A68126D5A607B685B68002B10D017
:1036A0007B685B68042B0CD8786800F0E5FA7B68CF
:1036B0005B6D00221A607B689B6D7A68D26D5A60E0
:1036C00008E07B6800225A657B6800229A657B6867
:1036D0000022DA657B680022DA637B68012283F8C6
:1036E00025207B68002283F8242000231846083711
:1036F000BD4680BD07040240F8FFFDBFCDCCCCCC59
:1037000000000240F8FBFDBF0004024080B586B017
:1037100000AFF860B9607A603B600023FB75FB681E
:1037200093F82430012B01D1022369E0FB680122C8
:1037300083F82420FB6893F82530DBB2012B55D1A8
:10374000FB68022283F82520FB680022DA63FB680D
:103750001B681A68FB681B6822F001021A603B684C
:103760007A68B968F86800F002FAFB681B6B002BF6
:1037700008D0FB681B681A68FB681B6842F00E02E1
:103780001A600FE0FB681B681A68FB681B6822F070
:1037900004021A60FB681B681A68FB681B6842F029
:1037A0000A021A60FB689B6C1B6803F48033002BD1
:1037B00007D0FB689B6C1A68FB689B6C42F48072B4
:1037C0001A60FB685B6D002B07D0FB685B6D1A68A5
:1037D000FB685B6D42F480721A60FB681B681A68B4
:1037E000FB681B6842F001021A6008E0FB68802257
:1037F000DA63FB68002283F824200123FB75FB7D3C
:1038000018461837BD4680BD80B483B000AF7860DD
:103810007B68002B01D101234FE07B6893F82530B2
:10382000DBB2022B08D07B680422DA637B680022BB
:1038300083F82420012340E07B681B681A687B68BA
:103840001B6822F00E021A607B689B6C1A687B680A
:103850009B6C22F480721A607B681B681A687B6814
:103860001B6822F001021A607B685B6C03F01C028B
:103870007B681B6C012101FA02F25A607B68DB6CE9
:103880007A68126D5A607B685B6D002B0CD07B6888
:103890005B6D1A687B685B6D22F480721A607B68CE
:1038A0009B6D7A68D26D5A607B68012283F825206F
:1038B0007B68002283F82420002318460C37BD467D
:1038C00080BC704780B584B000AF78600023FB7384
:1038D0007B6893F82530DBB2022B05D07B6804228D
:1038E000DA630123FB7347E07B681B681A687B6817
:1038F0001B6822F00E021A607B681B681A687B68DE
:103900001B6822F001021A607B689B6C1A687B6856
:103910009B6C22F480721A607B685B6C03F01C0263
:103920007B681B6C012101FA02F25A607B68DB6C38
:103930007A68126D5A607B685B6D002B0CD07B68D7
:103940005B6D1A687B685B6D22F480721A607B681D
:103950009B6D7A68D26D5A607B68012283F82520BE
:103960007B68002283F824207B689B6B002B03D0AC
:103970007B689B6B78689847FB7B18461037BD4681
:1039800080BD000080B584B000AF78607B681B6CA0
:103990001B68FB607B681B681B68BB607B685B6C9B
:1039A00003F01C0304229A40FB681340002B27D02D
:1039B000BB6803F00403002B22D07B681B681B68E4
:1039C00003F02003002B07D17B681B681A687B6813
:1039D0001B6822F004021A607B685B6C03F01C0217
:1039E0007B681B6C042101FA02F25A607B681B6B36
:1039F000002B00F081807B681B6B786898477BE028
:103A00007B685B6C03F01C0302229A40FB68134046
:103A1000002B3DD0BB6803F00203002B38D07B683D
:103A20001B681B6803F02003002B0BD17B681B680D
:103A30001A687B681B6822F00A021A607B68012200
:103A400083F825207B681B681A462E4B9A4209D9B9
:103A50007B685B6C03F01C032B4A022101FA03F321
:103A6000536008E07B685B6C03F01C03274A02216B
:103A700001FA03F353607B68002283F824207B68FB
:103A8000DB6A002B38D07B68DB6A7868984733E0C4
:103A90007B685B6C03F01C0308229A40FB681340B0
:103AA000002B2AD0BB6803F00803002B25D07B68CD
:103AB0001B681A687B681B6822F00E021A607B681C
:103AC0005B6C03F01C027B681B6C012101FA02F2A3
:103AD0005A607B680122DA637B68012283F8252023
:103AE0007B68002283F824207B685B6B002B04D06A
:103AF0007B685B6B7868984700BF00BF1037BD4696
:103B000080BD00BF8000024000040240000002406F
:103B100080B485B000AF786039600023FB727B68A9
:103B2000002B03D10123FB72FB7A1BE07B681B682F
:103B30001B68FB603B6803F01003002B0DD03B6853
:103B400003F48013002B04D0FB6843F48013FB6064
:103B500003E0FB6823F48013FB607B681B68FA6852
:103B60001A60FB7A18461437BD4680BC704780B493
:103B700085B000AFF860B9607A603B60FB68DB6CD1
:103B8000FA68126D5A60FB685B6D002B04D0FB680D
:103B90009B6DFA68D26D5A60FB685B6C03F01C0287
:103BA000FB681B6C012101FA02F25A60FB681B687A
:103BB0003A685A60FB689B68102B08D1FB681B6849
:103BC0007A689A60FB681B68BA68DA6007E0FB688D
:103BD0001B68BA689A60FB681B687A68DA6000BF85
:103BE0001437BD4680BC704780B485B000AF7860A4
:103BF0007B681B681A461C4B9A4213D87B685B6C27
:103C00009B089B0003F1804303F502337A689364B9
:103C10007B681B68DBB2083B144AA2FB03231B0929
:103C2000FB6011E07B685B6C9B089A00104B1344AF
:103C30007A6893647B681B68DBB2083B0B4AA2FB83
:103C400003231B090733FB607B680A4ADA64FB68BD
:103C500003F01F0301229A407B681A6500BF1437E6
:103C6000BD4680BC704700BF07040240CDCCCCCC21
:103C70001C0802408008024080B485B000AF786024
:103C80007B685B6803F07F03FB60FA680A4B1344B0
:103C90009B001A467B685A657B68084A9A65FB68F0
:103CA000013B03F0030301229A407B68DA6500BF01
:103CB0001437BD4680BC70473F8200104009024067
:103CC00080B487B000AF7860396000237B6140E149
:103CD0003B681A6801217B6901FA03F31340FB601A
:103CE000FB68002B00F032813B685B6803F0030344
:103CF000012B05D03B685B6803F00303022B30D136
:103D00007B689B683B617B695B00032202FA03F3DB
:103D1000DB433A6913403B613B68DA687B695B00CF
:103D200002FA03F33A6913433B617B683A699A608C
:103D30007B685B683B6101227B6902FA03F3DB432A
:103D40003A6913403B613B685B681B0903F0010261
:103D50007B6902FA03F33A6913433B617B683A6972
:103D60005A603B685B6803F00303032B17D07B6842
:103D7000DB683B617B695B00032202FA03F3DB43F0
:103D80003A6913403B613B689A687B695B0002FAC1
:103D900003F33A6913433B617B683A69DA603B6835
:103DA0005B6803F00303022B23D17B69DA087B688D
:103DB000083253F822303B617B6903F007039B0014
:103DC0000F2202FA03F3DB433A6913403B613B687D
:103DD0001A697B6903F007039B0002FA03F33A694F
:103DE00013433B617B69DA087B680832396943F821
:103DF00022107B681B683B617B695B00032202FA2F
:103E000003F3DB433A6913403B613B685B6803F0B3
:103E100003027B695B0002FA03F33A6913433B61D7
:103E20007B683A691A603B685B6803F44033002B97
:103E300000F08C804E4A7B699B08023352F8233095
:103E40003B617B6903F003039B00072202FA03F343
:103E5000DB433A6913403B617B68B3F1904F0DD06F
:103E60007B68444A934207D07B68434A934201D11E
:103E7000022304E0072302E0012300E000237A6923
:103E800002F00302920093403A6913433B613849C0
:103E90007B699B0802333A6941F82320374B1B6842
:103EA0003B61FB68DB433A6913403B613B685B68FD
:103EB00003F48013002B03D03A69FB6813433B6182
:103EC0002E4A3B6913602D4B5B683B61FB68DB430B
:103ED0003A6913403B613B685B6803F40013002BB5
:103EE00003D03A69FB6813433B61244A3B69536042
:103EF000224BD3F880303B61FB68DB433A691340C7
:103F00003B613B685B6803F48033002B03D03A6964
:103F1000FB6813433B61194A3B69C2F88030174B79
:103F2000D3F884303B61FB68DB433A6913403B6163
:103F30003B685B6803F40033002B03D03A69FB68ED
:103F400013433B610D4A3B69C2F884307B690133FE
:103F50007B613B681A687B6922FA03F3002B7FF4CC
:103F6000B7AE00BF00BF1C37BD4680BC704700BF66
:103F70000000014000040048000800480008005804
:103F800080B483B000AF78600B467B8013467B70B3
:103F90007B78002B03D07A887B689A6102E07A886C
:103FA0007B689A6200BF0C37BD4680BC704700003A
:103FB00080B400AF044B1B68034A43F48073136062
:103FC00000BFBD4680BC70470004005880B400AFFD
:103FD000034B1B6803F4C0631846BD4680BC7047A2
:103FE0000004005880B400AF064B1B6803F48073D4
:103FF000B3F5807F01D1012300E000231846BD46C0
:1040000080BC70470004005880B400AF4FF0B0434C
:104010001B684FF0B04243F40013136000BFBD466D
:1040200080BC704780B400AF4FF0B0431B684FF0C6
:10403000B04223F40013136000BFBD4680BC70473C
:1040400080B400AF4FF0B0431B6803F48013B3F5A6
:10405000801F01D1012300E000231846BD4680BC2B
:10406000704780B400AF4FF0B0431B684FF0B042D0
:1040700043F48033136000BFBD4680BC704780B4FA
:1040800000AF4FF0B0431B684FF0B04223F48033D1
:10409000136000BFBD4680BC704780B400AF4FF0D6
:1040A000B0431B6803F40033B3F5003F01D1012393
:1040B00000E000231846BD4680BC704780B400AFC6
:1040C0004FF0B0431B684FF0B04243F4807313606D
:1040D00000BFBD4680BC704780B400AF4FF0B04316
:1040E0001B684FF0B04223F48073136000BFBD46DD
:1040F00080BC704780B400AF4FF0B0431B6803F43E
:104100008063B3F5806F01D1012300E000231846DE
:10411000BD4680BC704780B483B000AF78604FF07C
:10412000B0435B6823F0FE427B681B064FF0B04152
:1041300013434B6000BF0C37BD4680BC704780B452
:1041400000AF4FF0B043D3F8903003F00203022BDE
:1041500001D1012300E000231846BD4680BC704712
:1041600080B400AF4FF0B043D3F894304FF0B0427A
:1041700043F00103C2F8943000BFBD4680BC7047D5
:1041800080B400AF4FF0B043D3F894304FF0B0425A
:1041900023F00103C2F8943000BFBD4680BC7047D5
:1041A00080B400AF4FF0B043D3F8943003F0020373
:1041B000022B01D1012300E000231846BD4680BC3C
:1041C000704780B400AF4FF0B0431B684FF0B0426F
:1041D00043F00103136000BFBD4680BC704780B44C
:1041E00000AF4FF0B0431B684FF0B04223F0010323
:1041F000136000BFBD4680BC704780B400AF4FF075
:10420000B0431B6803F00203022B01D1012300E03D
:1042100000231846BD4680BC704780B400AF4FF005
:10422000B0431B6803F00803082B01D1012300E011
:1042300000231846BD4680BC704780B400AF4FF0E5
:10424000B0431B6803F0F0031846BD4680BC7047BE
:1042500080B400AF4FF0B043D3F8943003F47063F0
:104260001846BD4680BC704780B483B000AF78600C
:104270004FF0B0435B6823F47F427B681B024FF032
:10428000B04113434B6000BF0C37BD4680BC704744
:1042900080B483B000AF78604FF0B0439B6823F0E8
:1042A00003024FF0B0417B6813438B6000BF0C37B3
:1042B000BD4680BC704780B400AF4FF0B0439B68F0
:1042C00003F00C031846BD4680BC704780B483B031
:1042D00000AF78604FF0B0439B6823F0F0024FF0DE
:1042E000B0417B6813438B6000BF0C37BD4680BC78
:1042F000704780B483B000AF78604FF0B043D3F81C
:10430000083123F0F0024FF0B0417B681343C1F84D
:10431000083100BF0C37BD4680BC704780B483B005
:1043200000AF78604FF0B043D3F8083123F00F02AC
:104330007B681B094FF0B0411343C1F8083100BF3F
:104340000C37BD4680BC704780B483B000AF786046
:104350004FF0B0439B6823F4E0624FF0B0417B68BC
:1043600013438B6000BF0C37BD4680BC704780B4E0
:1043700083B000AF78604FF0B0439B6823F4605285
:104380004FF0B0417B6813438B6000BF0C37BD46D4
:1043900080BC704780B400AF4FF0B0439B6803F01F
:1043A000F0031846BD4680BC704780B400AF4FF0A4
:1043B000B043D3F808311B0103F0F0031846BD46A3
:1043C00080BC704780B400AF4FF0B0439B6803F4EB
:1043D000E0631846BD4680BC704780B400AF4FF024
:1043E000B0439B6803F460531846BD4680BC7047D9
:1043F00080B400AF4FF0B0431B684FF0B04243F0C1
:104400008073136000BFBD4680BC704780B400AFAE
:104410004FF0B0431B684FF0B04223F0807313603D
:1044200000BFBD4680BC704780B400AF4FF0B043C2
:104430001B6803F00073B3F1007F01D1012300E09A
:1044400000231846BD4680BC704780B400AF4FF0D3
:10445000B043DB681B0A03F07F031846BD4680BCEF
:10446000704780B400AF4FF0B043DB6803F06043A7
:104470001846BD4680BC704780B400AF4FF0B043D3
:10448000DB6803F070031846BD4680BC704780B4FB
:1044900000AF4FF0B043DB6803F003031846BD469E
:1044A00080BC704780B400AF4FF0B0439B6803F40A
:1044B0008033B3F5803F01D1012300E0002318468B
:1044C000BD4680BC704780B400AF4FF0B043D3F816
:1044D000083103F40033B3F5003F01D1012300E0BC
:1044E00000231846BD4680BC704780B400AF4FF033
:1044F000B043D3F8083103F48033B3F5803F01D1E2
:10450000012300E000231846BD4680BC704780B4FC
:1045100000AF4FF0B0439B6803F40033B3F5003FA6
:1045200001D1012300E000231846BD4680BC70473E
:1045300080B400AF4FF0B0439B6803F48023B3F521
:10454000802F01D1012300E000231846BD4680BC26
:104550007047000080B588B000AF78607B68002BA2
:1045600001D101236FE3FFF7A6FEF861FFF78FFF8C
:10457000B8617B681B6803F02003002B00F0C48047
:10458000FB69002B05D0FB690C2B76D1BB69012B95
:1045900073D17B681B6A002B01D1012353E37B6835
:1045A0009A6A4FF0B0431B6803F00803002B05D054
:1045B0004FF0B0431B6803F0F00306E04FF0B04348
:1045C000D3F894301B0903F0F003934222D27B68A6
:1045D0009B6A184600F05AFD0346002B01D00123C8
:1045E00031E34FF0B0431B684FF0B04243F0080393
:1045F00013604FF0B0431B6823F0F0027B689B6AA6
:104600004FF0B04113430B607B685B6A1846FFF7BD
:104610002BFE21E04FF0B0431B684FF0B04243F057
:10462000080313604FF0B0431B6823F0F0027B686F
:104630009B6A4FF0B04113430B607B685B6A18467E
:10464000FFF712FE7B689B6A184600F01FFD0346C9
:10465000002B01D00123F6E200F0E0FC0346A74A5C
:104660001360A74B1B681846FEF750FE0346FB7409
:10467000FB7C002B47D0FB7CE5E27B681B6A002BB0
:104680002CD0FFF79EFDFEF763F9786108E0FEF796
:104690005FF902467B69D31A022B01D90323D2E2C8
:1046A000FFF7ABFD0346002BF1D04FF0B0431B6882
:1046B0004FF0B04243F0080313604FF0B0431B6863
:1046C00023F0F0027B689B6A4FF0B04113430B600C
:1046D0007B685B6A1846FFF7C7FD15E0FFF77FFDB3
:1046E000FEF736F9786108E0FEF732F902467B6999
:1046F000D31A022B01D90323A5E2FFF77EFD03465F
:10470000002BF1D100E000BF7B681B6803F00103C0
:10471000002B58D0FB69082B05D0FB690C2B08D166
:10472000BB69032B05D17B685B68002B4BD1012350
:1047300089E24FF0B0431B6823F480127B689B68CA
:104740004FF0B04113430B607B685B68B3F5803F6B
:1047500002D1FFF786FC0DE07B685B68B3F5041FB0
:1047600004D1FFF751FCFFF77CFC03E0FFF787FC67
:10477000FFF758FC7B685B68002B12D0FEF7E8F867
:10478000786108E0FEF7E4F802467B69D31A642BEF
:1047900001D9032357E2FFF780FC0346002BF1D039
:1047A00011E0FEF7D5F8786108E0FEF7D1F802468F
:1047B0007B69D31A642B01D9032344E2FFF76DFC14
:1047C0000346002BF1D17B681B6803F00203002B2A
:1047D00046D0FB69042B05D0FB690C2B0ED1BB69BD
:1047E000022B0BD17B681B69002B01D101232AE22C
:1047F0007B685B691846FFF78EFC31E07B681B69BC
:10480000002B19D0FFF75AFCFEF7A2F8786108E0F8
:10481000FEF79EF802467B69D31A022B01D90323C7
:1048200011E2FFF767FC0346002BF1D07B685B6960
:104830001846FFF770FC13E0FFF74EFCFEF788F810
:10484000786108E0FEF784F802467B69D31A022BF0
:1048500001D90323F7E1FFF74DFC0346002BF1D10B
:104860007B681B6803F00803002B6ED07B689B6994
:10487000002B56D04FF0B043D3F89430FB607B68E8
:10488000DA69FB6803F010039A4231D0FB6803F049
:104890000203002B06D0FB6803F00103002B01D1BB
:1048A0000123D0E1FB6803F00103002B13D0FFF7D5
:1048B00067FCFEF74DF8786108E0FEF749F802461C
:1048C0007B69D31A112B01D90323BCE1FFF768FCE4
:1048D0000346002BF1D14FF0B043D3F8943023F0CE
:1048E00010027B68DB694FF0B0411343C1F894308C
:1048F000FFF736FCFEF72CF878610CE00C00002086
:1049000010000020FEF724F802467B69D31A112B11
:1049100001D9032397E1FFF743FC0346002BF1D0B5
:1049200013E0FFF72DFCFEF713F8786108E0FEF7BF
:104930000FF802467B69D31A112B01D9032382E1B8
:10494000FFF72EFC0346002BF1D17B681B6803F0B8
:104950000403002B00F0D880FFF744FB0346002B34
:1049600013D1FFF725FBFDF7F3FF786108E0FDF7B2
:10497000EFFF02467B69D31A022B01D9032362E1C0
:10498000FFF730FB0346002BF1D07B68DB68002B80
:104990007BD07B68DB68852B03D07B68DB68052BCD
:1049A00009D14FF0B043D3F890304FF0B04243F00C
:1049B0000403C2F89030FDF7CBFF78614FF0B043AD
:1049C000D3F890304FF0B04243F00103C2F890307A
:1049D0000AE0FDF7BDFF02467B69D31A41F2883237
:1049E000934201D903232EE1FFF7A9FB0346002BD5
:1049F000EFD07B68DB68812B03D07B68DB68852B7D
:104A000021D1FDF7A5FF78614FF0B043D3F8903086
:104A10004FF0B04243F08003C2F890300AE0FDF757
:104A200097FF02467B69D31A41F28832934201D93B
:104A3000032308E14FF0B043D3F8903003F4006350
:104A4000002BECD060E0FDF783FF78614FF0B043BE
:104A5000D3F890304FF0B04223F08003C2F890308A
:104A60000AE0FDF775FF02467B69D31A41F28832EE
:104A7000934201D90323E6E04FF0B043D3F89030DE
:104A800003F40063002BECD13EE0FDF761FF786199
:104A90004FF0B043D3F890304FF0B04223F0800392
:104AA000C2F890300AE0FDF753FF02467B69D31A43
:104AB00041F28832934201D90323C4E04FF0B0435E
:104AC000D3F8903003F40063002BECD1FDF740FFE6
:104AD00078614FF0B043D3F890304FF0B04223F0FC
:104AE0000103C2F890300AE0FDF732FF02467B690D
:104AF000D31A41F28832934201D90323A3E0FFF78E
:104B00001EFB0346002BEFD17B68DB6A002B00F015
:104B10009980FB690C2B6CD07B68DB6A022B4BD134
:104B2000FFF774FCFDF714FF786108E0FDF710FF54
:104B300002467B69D31A0A2B01D9032383E0FFF7CE
:104B400073FC0346002BF1D14FF0B043DA68404BC1
:104B500013407A68116B7A68526B11437A68926BD2
:104B6000120211437A68D26B11437A68126C1143B6
:104B70007A68526C0A434FF0B0411343CB60FFF7A1
:104B800037FC4FF0B043DB684FF0B04243F0805346
:104B9000D360FDF7DDFE786108E0FDF7D9FE02463F
:104BA0007B69D31A0A2B01D903234CE0FFF73CFCA5
:104BB0000346002BF1D045E0FFF728FCFDF7C8FEC7
:104BC000786108E0FDF7C4FE02467B69D31A0A2B20
:104BD00001D9032337E0FFF727FC0346002BF1D16F
:104BE0004FF0B043DA684FF0B0411A4B1340CB603E
:104BF00028E07B68DB6A012B01D1012323E04FF021
:104C0000B043DB68BB61BB6903F003027B681B6BCD
:104C10009A4215D1BB6903F070027B685B6B9A42C4
:104C20000ED1BB6903F4FE427B689B6B1B029A4268
:104C300006D1BB6903F060427B685B6C9A4201D08D
:104C4000012300E0002318462037BD4680BD00BF89
:104C50008C80C111FCFFFEEE80B584B000AF78609F
:104C600039607B68002B01D101232CE1984B1B6834
:104C700003F007033A689A421BD9954B1B6823F04F
:104C8000070293493B6813430B60FDF761FEF86030
:104C900008E0FDF75DFE0246FB68D31A022B01D93E
:104CA000032310E18A4B1B6803F007033A689A421A
:104CB000EFD17B681B6803F00203002B16D07B68E2
:104CC0009B681846FFF702FBFDF742FEF86008E01C
:104CD000FDF73EFE0246FB68D31A022B01D90323DF
:104CE000F1E0FFF7DFFB0346002BF1D07B681B6888
:104CF00003F02003002B16D07B685B691846FFF792
:104D0000F8FAFDF725FEF86008E0FDF721FE0246FF
:104D1000FB68D31A022B01D90323D4E0FFF7D3FB9E
:104D20000346002BF1D07B681B6803F04003002B87
:104D300016D07B689B691846FFF7F0FAFDF708FE6E
:104D4000F86008E0FDF704FE0246FB68D31A022B68
:104D500001D90323B7E0FFF7C8FB0346002BF1D0CE
:104D60007B681B6803F00403002B16D07B68DB68AC
:104D70001846FFF7E9FAFDF7EBFDF86008E0FDF7EC
:104D8000E7FD0246FB68D31A022B01D903239AE000
:104D9000FFF7BDFB0346002BF1D07B681B6803F0D7
:104DA0000803002B17D07B681B69DB001846FFF750
:104DB000DEFAFDF7CDFDF86008E0FDF7C9FD02461B
:104DC000FB68D31A022B01D903237CE0FFF7B0FB69
:104DD0000346002BF1D07B681B6803F00103002B16
:104DE00043D07B685B68022B06D1FFF756F9034678
:104DF000002B1ED1012366E07B685B68032B06D184
:104E0000FFF712FB0346002B13D101235BE07B6805
:104E10005B68002B06D1FFF7F0F90346002B08D1A1
:104E2000012350E0FFF766F90346002B01D101236F
:104E300049E07B685B681846FFF72AFAFDF788FDB2
:104E4000F8600AE0FDF784FD0246FB68D31A41F2E0
:104E50008832934201D9032335E0FFF72CFA02464A
:104E60007B685B689B009A42ECD1194B1B6803F08E
:104E700007033A689A421BD2154B1B6823F00702BE
:104E800013493B6813430B60FDF762FDF86008E0CF
:104E9000FDF75EFD0246FB68D31A022B01D90323FE
:104EA00011E00B4B1B6803F007033A689A42EFD1FD
:104EB00000F0B4F80346074A1360074B1B68184616
:104EC000FEF724FA034618461037BD4680BD00BFE2
:104ED000004000580C0000201000002090B587B062
:104EE00000AF00237B6100233B61FFF7E4F9B8606A
:104EF000FFF7CDFA7860BB68002B05D0BB680C2BA0
:104F000039D17B68012B36D1FFF787F90346002B97
:104F100015D1FFF782F90346012B06D1FFF78DF972
:104F200003461B0A03F00F0305E0FFF791F9034660
:104F30001B0A03F00F03364A52F8233014E0FFF740
:104F40006CF90346012B06D1FFF777F903461B09DD
:104F500003F00F0305E0FFF77BF903461B0903F09D
:104F60000F032B4A52F823303B61BB68002B15D14D
:104F70003B697B6112E0BB68042B02D1254B7B614E
:104F80000CE0BB68082B09D1FFF75AF80346012B48
:104F900002D1204B7B6101E01F4B7B61FFF78BF956
:104FA00003460C2B2FD1FFF772FA78607B68022B37
:104FB00003D07B68032B03D00DE0164BFB600DE0A4
:104FC000FFF73EF80346012B02D1124BFB6005E0D0
:104FD000114BFB6002E03B69FB6000BFFFF735FA55
:104FE0000246FB6803FB02F4FFF746FA03461B097F
:104FF0000133B4FBF3F4FFF734FA03465B0F0133DC
:10500000B4FBF3F37B617B6918461C37BD4690BD4A
:105010000CCC00080024F4000048E80198B500AF6B
:10502000FFF75CFF0446FFF7B5F903461B0903F0E1
:105030000F03034A52F82330B4FBF3F3184698BD2C
:10504000ACCB000898B500AFFFF7E8FF0446FFF7C8
:10505000B9F903461B0A034A52F8233024FA03F332
:10506000184698BDECCB000898B500AFFFF7D6FF07
:105070000446FFF7B2F90346DB0A034A52F823302D
:1050800024FA03F3184698BDECCB000890B585B020
:1050900000AF78607B681B0903F00F03104A52F8D9
:1050A0002330FB60FFF781F903461B0903F00F0370
:1050B0000C4A52F82330FA68B2FBF3F3BB60BB68CA
:1050C000094AA2FB03239C0CFEF780FF0346194606
:1050D000204600F00BF8034618461437BD4690BD35
:1050E0000CCC0008ACCB000883DE1B4380B58EB02F
:1050F00000AF786039603A4A07F1200392E8030074
:10510000186004331980374A07F1180392E8030046
:10511000186004331980344A07F10C0307CA83E886
:10512000070000237B633B68B3F5007F1BD100239E
:105130003B6314E03B6B5B0038333B4433F8183C73
:105140001A467B68934207D83B6B9B0038333B443D
:1051500053F82C3C7B6321E03B6B01333B633B6B9F
:10516000022BE7D91AE00023FB6214E0FB6A5B0024
:1051700038333B4433F8203C1A467B68934207D8C7
:10518000FB6A9B0038333B4453F82C3C7B6305E0BF
:10519000FB6A0133FB62FB6A022BE7D9134B1B68E6
:1051A00023F0070211497B6B13430B60FDF7D0FB23
:1051B000B86208E0FDF7CCFB0246BB6AD31A022BAB
:1051C00001D9032307E0094B1B6803F007037A6B3F
:1051D0009A42EFD1002318463837BD4680BD00BF44
:1051E0006CCB000874CB00087CCB00080040005852
:1051F00080B400AF4FF0B043D3F8903003F0020317
:10520000022B01D1012300E000231846BD4680BCDB
:10521000704780B483B000AF78604FF0B043D3F8EC
:1052200088207B681B0CDB431A407B689BB24FF0E5
:10523000B0411343C1F8883000BF0C37BD4680BC75
:10524000704780B483B000AF78604FF0B043D3F8BC
:10525000883023F440724FF0B0417B681343C1F8AB
:10526000883000BF0C37BD4680BC704780B483B027
:1052700000AF78604FF0B043D3F8883023F4406239
:105280004FF0B0417B681343C1F8883000BF0C3742
:10529000BD4680BC704780B483B000AF78604FF0EB
:1052A000B043D3F888207B681B0903F47F23DB43DA
:1052B0001A407B681B0103F47F234FF0B041134376
:1052C000C1F8883000BF0C37BD4680BC704780B441
:1052D00083B000AF78604FF0B043D3F888207B688C
:1052E0001B0C1B04DB431A407B681B044FF0B041CE
:1052F0001343C1F8883000BF0C37BD4680BC7047EF
:1053000080B483B000AF78604FF0B043D3F88830FA
:1053100023F040424FF0B0417B681343C1F888301E
:1053200000BF0C37BD4680BC704780B483B000AF6F
:1053300078604FF0B043D3F8883023F040524FF0FC
:10534000B0417B681343C1F8883000BF0C37BD46BD
:1053500080BC704780B483B000AF78604FF0B0433A
:10536000D3F8903023F440724FF0B0417B68134380
:10537000C1F8903000BF0C37BD4680BC704780B488
:1053800000AF4FF0B043D3F8903003F440731846A9
:10539000BD4680BC704780B400AF4FF0B043D3F837
:1053A00090304FF0B04243F48033C2F8903000BFE9
:1053B000BD4680BC704780B400AF4FF0B043D3F817
:1053C00090304FF0B04223F48033C2F8903000BFE9
:1053D000BD4680BC7047000080B586B000AF7860E5
:1053E00000237B610023FB740023BB747B681B6874
:1053F00003F48033002B58D0FEF7DAFDFDF7A8FA4E
:10540000F86009E0FDF7A4FA0246FB68D31A022B04
:1054100002D90323FB7406E07B4B1B6803F4807303
:10542000B3F5807FEED1FB7C002B3CD1FFF7A7FFCB
:1054300002467B685B6B9A420FD04FF0B043D3F8C3
:10544000903023F440737B61FFF7A5FFFFF7B3FFB4
:105450004FF0B0427B69C2F890307B6903F00203E1
:10546000002B14D0FDF774FAF8600BE0FDF770FA2A
:105470000246FB68D31A41F28832934202D90323D1
:10548000FB7404E0FFF7B4FE0346012BEED1FB7C76
:10549000002B05D17B685B6B1846FFF75BFF04E0D0
:1054A000FB7CBB7401E0FB7CBB747B681B6803F076
:1054B0000103002B04D07B685B681846FFF7A9FE48
:1054C0007B681B6803F00203002B04D07B689B6899
:1054D0001846FFF79EFE7B681B6803F02003002B35
:1054E00004D07B681B691846FFF7C0FE7B681B6809
:1054F00003F40073002B04D07B681B6A1846FFF787
:10550000E6FE7B681B6803F48063002B04D07B6895
:105510005B6A1846FFF7DBFE7B681B6803F40063D9
:10552000002B04D07B689B6A1846FFF7D0FE7B688F
:105530001B6803F04003002B04D07B685B691846AE
:10554000FFF7A9FE7B681B6803F08003002B04D0E3
:105550007B689B691846FFF79EFE7B681B6803F417
:105560008073002B04D07B68DB691846FFF793FE3D
:105570007B681B6803F01003002B11D07B68DB688D
:105580001846FFF75EFE7B68DB68B3F5807F07D1C6
:105590004FF0B043DB684FF0B04243F08073D3600C
:1055A0007B681B6803F40043002B10D07B681B6BE7
:1055B0001846FFF7A5FE7B681B6B002B07D14FF049
:1055C000B043DB684FF0B04243F08073D3607B6838
:1055D0001B6803F48043002B11D07B68DB6A1846FC
:1055E000FFF7A3FE7B68DB6AB3F1005F07D14FF0E2
:1055F000B043DB684FF0B04243F48033D360BB7CF0
:1056000018461837BD4680BD0004005880B483B0EA
:1056100000AF7860064B9B6823F4006204497B6806
:1056200013438B6000BF0C37BD4680BC704700BF82
:105630000004005880B400AF054BD3F89030044A02
:1056400043F40043C2F8903000BFBD4680BC7047B1
:105650000004005880B400AF054BD3F89030044AE2
:1056600023F40043C2F8903000BFBD4680BC7047B1
:105670000004005880B400AF034B4FF400629A61FD
:1056800000BFBD4680BC70470004005880B400AF26
:10569000064B5B6903F00203022B01D1012300E0FA
:1056A00000231846BD4680BC704700BF0004005868
:1056B00080B400AF064B5B6903F00403042B01D1F7
:1056C000012300E000231846BD4680BC704700BFA0
:1056D0000004005880B400AF4FF0B043D3F89430CA
:1056E0004FF0B04223F40043C2F8943000BFBD46EF
:1056F00080BC704780B400AF4FF0B043D3F8943013
:1057000003F48043B3F5804F01D1012300E000236F
:105710001846BD4680BC704780B483B000AF786047
:10572000064BD3F8902005497B681343C1F89030AD
:1057300000BF0C37BD4680BC704700BF0008005852
:1057400080B584B000AF78607B68002B03D1012363
:10575000FB73FB7B52E00023FB737B689B79BB737D
:10576000BB7B002B02D0BB7B032B09D17B680022C3
:105770005A717868FDF7D2F84FF48050FFF7CCFFEC
:10578000BB7B002B26D17B6802229A71FFF7A2FF18
:105790001C4B1A681346DB009B1A9B00DB0C64222F
:1057A00002FB03F3BB60BB68002B05D10123FB7335
:1057B0007B6801229A6007E0BB68013BBB60FFF792
:1057C00099FF0346002BEED1FFF734FF4FF4006042
:1057D000FFF71CFFFFF74EFFFB7B002B0AD17B6816
:1057E0001B68184600F0ACFA7B6801221A717B68CE
:1057F00000229A607B6801229A71FB7B1846103761
:10580000BD4680BD0C00002080B586B000AFF860BA
:105810007A601A460B467B8113463B81FB689B7975
:10582000DBB2012B4AD1FB685B79012B01D102234A
:1058300045E0FB6801225A71FB6802229A71F86800
:1058400000F04CFBFFF706FF0D21F86800F098FA16
:105850007B891B0A9BB2DBB21946F86800F090FA0C
:105860007B89DBB21946F86800F08AFA0023BB8214
:105870000AE0BB8A7A6813441B781946F86800F07E
:105880007FFABB8A0133BB82BA8A3B899A42F0D342
:10589000FFF7D0FEF86800F045FBFB689B68002B23
:1058A00002D00123FB7501E00023FB75FB68012298
:1058B0009A71FB6800225A71FB7D00E002231846B2
:1058C0001837BD4680BD80B588B000AFF8607A60FB
:1058D0001A460B467B8113463B817B68BB61FB68A4
:1058E0009B79DBB2012B4AD1FB685B79012B01D19B
:1058F000022345E0FB6801225A71F86800F0EEFAD5
:10590000FFF7A8FE1D21F86800F03AFA7B891B0A10
:105910009BB2DBB21946F86800F032FA7B89DBB241
:105920001946F86800F02CFA0021F86800F028FA0F
:105930000023FB8209E0B969F86800F077FABB69D7
:105940000133BB61FB8A0133FB82FA8A3B899A42AD
:10595000F1D3FFF76FFEF86800F0E4FAFB689B688C
:10596000002B02D00123FB7701E00023FB77FB68CB
:1059700001229A71FB6800225A71FB7F00E002232A
:1059800018462037BD4680BD80B586B000AFF860B0
:105990007A601A460B46FB7213463B81FB689B7983
:1059A000DBB2012B4AD1FB685B79012B01D10223C9
:1059B00045E0FB6801225A71F86800F08FFAFB7A23
:1059C000842B02D0FB7A942B03D1FB6801221A713D
:1059D00002E0FB6800221A71FFF73CFEFB7A1946D1
:1059E000F86800F0CDF90023BB820AE0BB8A7A6830
:1059F00013441B781946F86800F0C2F9BB8A0133DA
:105A0000BB82BA8A3B899A42F0D3FFF713FEFB7A36
:105A1000842B02D0F86800F085FAFB689B68002BA5
:105A200002D00123FB7501E00023FB75FB68012216
:105A30009A71FB6800225A71FB7D00E00223184630
:105A40001837BD4680BD80B588B000AFF8607A6079
:105A50001A460B46FB7213463B817B68BB61FB68B1
:105A60009B79DBB2012B3DD1FB685B79012B01D126
:105A7000022338E0FB6801225A71F86800F02EFA20
:105A8000FFF7E8FDFB7A1946F86800F079F9002184
:105A9000F86800F075F90023FB8209E0B969F8683D
:105AA00000F0C4F9BB690133BB61FB8A0133FB829F
:105AB000FA8A3B899A42F1D3FFF7BCFDF86800F0FF
:105AC00031FAFB689B68002B02D00123FB7701E0D1
:105AD0000023FB77FB6801229A71FB6800225A7150
